:020000040000FA
:10C000003DB8F39600000000000200002050000040
:10C010000000000000000000000000000000000020
:10C02000FFFFFFFFFFFFFFFFFFFFFFFFFFFFFFFF20
:10C03000FFFFFFFFFFFFFFFFFFFFFFFFFFFFFFFF10
:10C04000FFFFFFFFFFFFFFFFFFFFFFFFFFFFFFFF00
:10C05000FFFFFFFFFFFFFFFFFFFFFFFFFFFFFFFFF0
:10C06000FFFFFFFFFFFFFFFFFFFFFFFFFFFFFFFFE0
:10C07000FFFFFFFFFFFFFFFFFFFFFFFFFFFFFFFFD0
:10C08000FFFFFFFFFFFFFFFFFFFFFFFFFFFFFFFFC0
:10C09000FFFFFFFFFFFFFFFFFFFFFFFFFFFFFFFFB0
:10C0A000FFFFFFFFFFFFFFFFFFFFFFFFFFFFFFFFA0
:10C0B000FFFFFFFFFFFFFFFFFFFFFFFFFFFFFFFF90
:10C0C000FFFFFFFFFFFFFFFFFFFFFFFFFFFFFFFF80
:10C0D000FFFFFFFFFFFFFFFFFFFFFFFFFFFFFFFF70
:10C0E000FFFFFFFFFFFFFFFFFFFFFFFFFFFFFFFF60
:10C0F000FFFFFFFFFFFFFFFFFFFFFFFFFFFFFFFF50
:10C10000FFFFFFFFFFFFFFFFFFFFFFFFFFFFFFFF3F
:10C11000FFFFFFFFFFFFFFFFFFFFFFFFFFFFFFFF2F
:10C12000FFFFFFFFFFFFFFFFFFFFFFFFFFFFFFFF1F
:10C13000FFFFFFFFFFFFFFFFFFFFFFFFFFFFFFFF0F
:10C14000FFFFFFFFFFFFFFFFFFFFFFFFFFFFFFFFFF
:10C15000FFFFFFFFFFFFFFFFFFFFFFFFFFFFFFFFEF
:10C16000FFFFFFFFFFFFFFFFFFFFFFFFFFFFFFFFDF
:10C17000FFFFFFFFFFFFFFFFFFFFFFFFFFFFFFFFCF
:10C18000FFFFFFFFFFFFFFFFFFFFFFFFFFFFFFFFBF
:10C19000FFFFFFFFFFFFFFFFFFFFFFFFFFFFFFFFAF
:10C1A000FFFFFFFFFFFFFFFFFFFFFFFFFFFFFFFF9F
:10C1B000FFFFFFFFFFFFFFFFFFFFFFFFFFFFFFFF8F
:10C1C000FFFFFFFFFFFFFFFFFFFFFFFFFFFFFFFF7F
:10C1D000FFFFFFFFFFFFFFFFFFFFFFFFFFFFFFFF6F
:10C1E000FFFFFFFFFFFFFFFFFFFFFFFFFFFFFFFF5F
:10C1F000FFFFFFFFFFFFFFFFFFFFFFFFFFFFFFFF4F
:10C20000680D00205DDA000061050100BDDA000064
:10C21000BDDA0000BDDA0000BDDA0000BDDA0000C2
:10C22000000000000000000000000000A1D8000095
:10C23000BDDA00000000000049D800003905010007
:10C240001DDA00001DDA00001DDA00001DDA000012
:10C250001DDA00001DDA00001DDA00001DDA000002
:10C260001DDA00001DDA00001DDA00001DDA0000F2
:10C270001DDA00001DDA00001DDA00001DDA0000E2
:10C280001DDA00001DDA00001DDA00001DDA0000D2
:10C290001DDA00001DDA00001DDA00001DDA0000C2
:10C2A0001DDA00001DDA00001DDA00001DDA0000B2
:10C2B0001DDA00001DDA00001DDA00001DDA0000A2
:10C2C0001DDA00001DDA00001DDA00001DDA000092
:10C2D0001DDA00001DDA00001DDA00001DDA000082
:10C2E0001DDA00001DDA00001DDA00001DDA000072
:10C2F0001DDA00001DDA00001DDA00001DDA000062
:10C300001DDA00001DDA00001DDA00001DDA000051
:10C310001DDA00001DDA00001DDA00001DDA000041
:10C320001DDA00001DDA00001DDA00001DDA000031
:10C330001DDA00001DDA00001DDA00001DDA000021
:10C340001DDA00001DDA00001DDA00001DDA000011
:10C350001DDA000053B94AB9002908BF00281CBFE4
:10C360004FF0FF314FF0FF3000F070B9ADF1080C25
:10C370006DE904CE00F006F8DDF804E0DDE9022303
:10C3800004B070472DE9F047089E0D4604468A46E2
:10C39000002B7FD18A42174641D9B2FA82F24AB1C4
:10C3A000C2F1200105FA02F39740944020FA01F10E
:10C3B00041EA030A4FEA17484FEA144C1FFA87F97B
:10C3C000BAFBF8FE08FB1EA30EFB09F14CEA03437F
:10C3D000994206D9FB1802D2994200F224810EF14B
:10C3E000FF3E591AA3B2B1FBF8F008FB101100FB95
:10C3F00009F943EA0144A14505D93C1902D2A145F6
:10C4000000F20E810138A4EB090440EA0E4000213D
:10C410001EB1D4400023C6E90043BDE8F08702B94D
:10C42000FFDEB2FA82F2002A4FD1CB1B4FEA174E41
:10C430001FFA87F80121250CB3FBFEFC0EFB1C3014
:10C440002B4608FB0CF945EA0045A9450AD97D1998
:10C450002CBF01230023A94502D9002B00F0D9806D
:10C460000CF1FF3CA5EB0905A3B2B5FBFEF00EFBFA
:10C47000105508FB00F843EA0544A04505D93C19CE
:10C4800002D2A04500F2C9800138A4EB080440EABA
:10C490000C40BDE78B4208D9002E00F0B18000218E
:10C4A000C6E900050846BDE8F087B3FA83F1002924
:10C4B00046D1AB42C0F0A780824240F2A480084639
:10C4C000002EAAD0C6E9004AA7E7C2F12000974093
:10C4D00001FA02F34FEA174EC14024FA00F51FFAA1
:10C4E00087F894401D43B1FBFEF02B0C0EFB10119E
:10C4F00000FB08FC43EA01439C4509D9FB182CBF0B
:10C50000012100219C4502D9002900F095800138C5
:10C51000A3EB0C03ADB2B3FBFEF10EFB113301FB39
:10C5200008FC45EA0345AC4505D97D1902D2AC4566
:10C5300000F289800139A5EB0C0341EA00417AE75A
:10C54000C1F120048B4002FA01F705FA01FCE24038
:10C5500020FA04F8E54000FA01FE134348EA0C0211
:10C560004FEA13484FEA124C1FFA83F9B5FBF8FA69
:10C5700008FB1A550AFB09F04CEA054C60450AD93C
:10C5800013EB0C0C2CBF01250025604501D9002DB3
:10C5900055D00AF1FF3AACEB000C92B2BCFBF8F0BC
:10C5A00008FB10CC00FB09F942EA0C4CE14505D927
:10C5B00013EB0C0C01D2E1453BD8013840EA0A40AC
:10C5C000ACEB090CA0FB0789CC4545464A4602D393
:10C5D00006D1C64504D20138B8EB070569EB030262
:10C5E0002EB3BEEB05036CEB020C23FA01F20CFA3E
:10C5F00004F42CFA01F300211443C6E900430CE7CC
:10C600003146304609E7841A65EB030301209A4658
:10C6100056E7ACF1020C3D4424E702383C4434E7D1
:10C6200002383C44EFE6AEF1020E3B44D9E6314617
:10C63000F3E602389C44C1E702383B4468E7AAF1BC
:10C64000020A9C44A7E702393D4474E7704700BFE3
:10C650000149024803F0CEBC940F0100AD0F010068
:10C660000B6801330B60014B1B681847000000206A
:10C67000014B1860704700BF0000002007B50B4653
:10C68000002102460191034801A900F0EBF803B034
:10C690005DF804FB61C600002DE9F84FB0F8189072
:10C6A000044619F0080893460DD001290CBF49F043
:10C6B000100949F02009A0F818908BF31188BFF3F6
:10C6C0006F8FBDE8F88F09F00709022907D12046CE
:10C6D00003F09DFC0028F0D00128238B50D167691E
:10C6E000218B002F15DA256821F00701C4E90088A5
:10C6F00041F0010121830026218B01F0070ACA4580
:10C7000002D0A368002B5CD10DB9002E74D0002399
:10C7100058E001F007035A1F012A20D821F0070131
:10C72000062B256889B2C4E900880CD1002D2B4660
:10C7300038BF00232BB1628B1B6801326283002B50
:10C74000F8D141F002012046218303F060FC064647
:10C750000028D1D0238B43F020032383CBE7042B85
:10C760000CD121F0070189B22046218303F04FFC50
:10C7700005460028BFD041F0200121830025BAE7FB
:10C78000032809D1226923F00703166843F0060342
:10C79000002523832F46AFE7042806D1226923F022
:10C7A0000703566843F00403F2E7052806D122691F
:10C7B00023F00703966843F00503E9E700252E46BA
:10C7C000E8E7012341F0080121838BF31188BFF3CF
:10C7D0006F8F03BB002D33D116B120462049B047DF
:10C7E0004FF02003EFF3118B83F31188BFF36F8FAA
:10C7F000238B23F008032383238BDA0628D501211A
:10C8000023F010032383B4F8189009F007090029D6
:10C810007FF45BAF51E7A1680029DBD00B68002BE8
:10C8200038BF0023994652463B462046D1F804B013
:10C83000D847B9F1000FCDD04946D9F80030EEE71E
:10C8400029463B46524620462D6803F0FCFBC1E7D3
:10C8500013F020011EBF23F0200302212383D2E71F
:10C86000730001002DE9F04F8B4692461C460025CF
:10C8700091B002909AF8000008B928465EE3252896
:10C880000AF1010707D05946029B98470028C0F2D9
:10C890005583013510E2182200210AA803F0D4FEC6
:10C8A0009AF80130252B78D00022944616469646F9
:10C8B0001046394617F8013B2B2B00F09D8000F203
:10C8C0009480202B00F09B80232B00F09A8028B1CD
:10C8D0009DF8300040F004008DF83000BEF1000FEC
:10C8E00005D09DF8300040F008008DF830002EB1E2
:10C8F0009DF8300040F010008DF83000BCF1000FC2
:10C9000005D09DF8300040F020008DF830002AB1AD
:10C910009DF8302042F040028DF830209DF8302004
:10C9200002F04400442803D16FF386128DF83020C2
:10C930009DF830202A2B42F080028DF830207BD1E8
:10C940009DF831204B1C42F001028DF831201A78FD
:10C950002E2A0CBF012100219DF8312061F34102F4
:10C960008DF8312074D15A782A2A6AD000210A26FB
:10C970000133184610F8012BA2F13007092F40F2BD
:10C980008E809DF830200E91C2F3400040EAD171B4
:10C9900061F341028DF830205AE00AF102078DF868
:10C9A00033309DF83130D90740F1498154F8049B68
:10C9B000B9F1000F07DA9DF83020C9F1000942F003
:10C9C00004028DF830205A0740F1428154F8048B5C
:10C9D000B8F1000F80F241819DF831306FF34103CF
:10C9E0008DF831304FF0FF3837E12D2B0CD0302B44
:10C9F0007FF46DAF01225CE74FF0010E59E701268D
:10CA000057E74FF0010C54E7012052E733460CFB87
:10CA10000202303A1E4616F8010BA0F13007092F2A
:10CA2000F4D9994293D09DF830100D92D20F62F351
:10CA300041018DF830108AE70B4600224FF00A0CB6
:10CA4000E8E79DF83120023342F004028DF83120EE
:10CA50001F4617F8012B6C2A41D025D8682A2BD005
:10CA60006A2A46D04C2A4CD01F4617F8012B9DF855
:10CA70003130782A8DF8332000F2D980572A4DD8EA
:10CA8000412A03D0453A022A00F2D18004229DF8BF
:10CA9000323062F302038DF8323001239EE006FB50
:10CAA00001210346303964E7742A26D07A2ADBD183
:10CAB00006229DF831300DE05A78682A9DF8312021
:10CAC00006D1012161F3C6028DF831209F1CCCE70D
:10CAD0001346022262F3C6038DF83130C5E75A7857
:10CAE0006C2A9DF8312001D10421EBE71346032283
:10CAF000F0E705229DF83130ECE707229DF8313050
:10CB0000E8E7BDF8303023F4F04323F0020343F4A8
:10CB1000804343F00203ADF83030A6E7A2F158019C
:10CB2000202900F2848001A050F821F0F1CB000010
:10CB30002FCC00002FCC00002FCC00002FCC000009
:10CB40002FCC00002FCC00002FCC00002FCC0000F9
:10CB50008DCA00002FCC0000F1CB0000B1CB00004B
:10CB60008DCA00008DCA00008DCA00002FCC0000C5
:10CB7000B1CB00002FCC00002FCC00002FCC000048
:10CB80002FCC0000F9CB0000F1CB000015CC000049
:10CB90002FCC00002FCC000015CC00002FCC0000C3
:10CBA000F1CB00002FCC00002FCC0000F1CB000017
:10CBB00001209DF8321003F0780360F30201402B4E
:10CBC0008DF8321002BF9DF8301041F001018DF850
:10CBD0003010632A31D1003B18BF01239DF830206B
:10CBE000C2F340010B4363F341028DF83020D8E6D5
:10CBF00002209DF83210DEE703219DF8322003F079
:10CC00007803A3F1400061F3020243428DF8322021
:10CC10004341E3E703219DF8322013F0780F61F3DD
:10CC2000020214BF012300238DF83220D6E79DF8BD
:10CC3000303043F001038DF830300023CEE79DF90A
:10CC40003020002AACBF4FF0FF39DDF83490BAE64F
:10CC50009B077FF5C7AEDDF838800023CDE90D33A3
:10CC60009DF832309DF8312003F00703012BC2F309
:10CC7000C30236D1D31E042B20D8DFE803F003070C
:10CC8000071F1F0054F8040BC11704E0073424F0F9
:10CC90000704F4E80201CDE90A019DF8303013F0F1
:10CCA000030654D03B4652465946029803F08BFB8C
:10CCB0000028C0F243810544BA46DBE554F8040B72
:10CCC000012A4FEAE071CDE90A0105D19DF828302B
:10CCD0000A9300230B93E0E7022ADED1BDF9280076
:10CCE000D2E7022B23D1D31E042B13D8DFE803F0A5
:10CCF000030A0A12120000212068231D0A900B91DA
:10CD00001C46CAE7073424F00703F3E80201CDE923
:10CD10000A01F5E754F8043B012A0A934FF0000397
:10CD20000B93D3D0022AB8D1BDF82830D0E7042B1A
:10CD300007D1073424F00704F4E80201CDE90A0121
:10CD4000ABE7032B04BF54F8043B0A93A5E79DF817
:10CD500033007828B0D8622822D825283FF493AD34
:10CD60005828A9D1DDE90A010DF1260300930CAA88
:10CD700004AB03F0DDFA8246B8F1000F0DF1260096
:10CD80000CDB9DF83020A0EB0A036FF38612984568
:10CD90008DF8302002D9A8EB03030D9380463DE0C7
:10CDA0006338152888D801A151F820F02DCE000055
:10CDB00091CE0000B9CC0000B9CC0000B9CC000085
:10CDC000B9CC000091CE0000B9CC0000B9CC000075
:10CDD000B9CC0000B9CC0000EFCE0000BDCE000001
:10CDE000C1CE0000B9CC0000B9CC000005CE0000D7
:10CDF000B9CC0000BDCE0000B9CC0000B9CC000019
:10CE0000BDCE0000B8F1000FDDF828A00ADB4146D6
:10CE1000504603F0D9FB00260AEB0008BAF1000FD8
:10CE20000CD149E7504603F0C8FBF4E700260A9B03
:10CE30000DF111088DF810300DF1100AA8EB0A035E
:10CE400006B101339DF83220D0066BD5023352066D
:10CE50000D9948BF0E9A0B4448BF9B18B9F1000FBB
:10CE600079DD9DF83020A9EB0309C2F38003039319
:10CE7000530770D4500664D546B159463046029BDC
:10CE8000984700285ADB039B01351E46302359E0A2
:10CE90001E0711D413F0100618BF2026DDE90A235F
:10CEA000002A73F10001BFF65DAF524263EB43030A
:10CEB0002D26CDE90A2355E72B26EFE7002651E77B
:10CEC0000A9848B30DF126030093002104AB0CAA85
:10CED00003F02EFABDF83230824603F0EF0343F43C
:10CEE000F04343F010030026ADF8323044E70A9BCC
:10CEF000072A3FF6E1AEDFE802F00D04060D080850
:10CF00000D0D1D70D8E61D80D6E62846E917C3E949
:10CF10000001D1E61D60CFE6DFF8C4800646A8F127
:10CF2000050A8BE7110748BF013390E718460393C2
:10CF30005946029B98470028039B04DA11B0BDE8CC
:10CF4000F08F20234D444A46002AA5EB090109F140
:10CF5000FF39EBDC0D4636B159463046029B984707
:10CF60000028EBDB01359DF83230D90601D41A07D1
:10CF700006D559463020029B98470028DEDB013554
:10CF80009DF83230DB0607D559469DF83300029BE9
:10CF900098470028D2DB01350D9E2E44731B002BD1
:10CFA00016DC434652465946029803F00CFA002814
:10CFB000C4DB0544A944A9EB0503002B7FF77CAE35
:10CFC00059462020029B98470028B7DB0135F2E73D
:10CFD00059463020029B98470028AFDB0135DDE73A
:10CFE000C30F0100094B1B68072B0DD1084B1B68B1
:10CFF000023B032B08D8074AD35C2BB1404080F397
:10D0000011884FF0040002DF002070473001FF005C
:10D010003401FF00C40F0100094B0A4900F01F0250
:10D020004009012808BF0B4603EB8203D3F8002216
:10D0300022F0E04242F04052C3F80022704700BFA5
:10D04000002584500028845070B54FF02003EFF382
:10D05000118683F31188BFF36F8F01240B4D0C4BA6
:10D060000020C3F80045C5F8D046FFF7D5FF20469D
:10D07000FFF7D2FFC5F80447C5F80449C5F8004BCF
:10D0800086F31188BFF36F8F002070BD0040005001
:10D090000010005048B1054B1A68054BB2FBF3F283
:10D0A000044B504343F00103184770473C000020F5
:10D0B00040420F00F00D0100044608B54FF0200279
:10D0C000EFF3118382F31188BFF36F8F03F036FA09
:10D0D000204600F0DFFD034802F08CFF00F060FC0A
:10D0E000FCE700BFC80F010010B5074801F0B8FD0C
:10D0F000064C074B1860204600F0ACFF2046FFF7B7
:10D10000B7FA002010BD00BFF10F010015D10000DB
:10D11000680200200A2838B50446074D04D1286863
:10D1200083680D215B68984728688368E1B25B6873
:10D130009847204638BD00BF680200200E4A70B5EF
:10D14000841A05460C20A3100C4C0E465C43E4B236
:10D1500000FB04204021783003F057F9011E05DB65
:10D16000074B03EBC4046368984700212846334605
:10D17000BDE87040184700BF7C020020B76DDBB6E9
:10D180000C0E01002DE9F0410C25104E8046841B49
:10D19000A3100F4C0F465C43E4B2654305F17800E1
:10D1A0004021304403F04AF9011E09DB094A731992
:10D1B000C3E91C27084B53F83430BDE8F041184749
:10D1C00040463B46BDE8F041184700BF7C020020C6
:10D1D000B76DDBB69F0401000C0E01002DE9F8438A
:10D1E000002201210646052000F088FB052000F002
:10D1F00067FB114801F056FB104B984219D103F020
:10D200005BFB00244FF01C080C27DFF83490F56816
:10D21000494608FB045002F049FF002807DB0123C0
:10D2200007FB04551C44042CAB67F0D10020BDE87B
:10D23000F8836FF00400FAE779D200000000AD0B2C
:10D240002C0E010001460C2300224B43084870B508
:10D25000C4187833D4E91C561844226703F00CF93B
:10D260002DB132462B46BDE870400248184770BDCC
:10D270007C020020A8000020052811D8DFE800F07B
:10D28000030E10100C0A074B986F10F0070007D11F
:10D29000FFF7D8BF0220FBE70320F9E70120F7E7FB
:10D2A000704700BF7C02002008B54FF02003EFF369
:10D2B000118183F31188BFF36F8F124A136843F013
:10D2C000020013F0010310600CD04FF05022D2F88E
:10D2D0000C34D2F80C2413F0010303D00A4803F0F5
:10D2E000CBF8012381F31188BFF36F8F23B1BDE821
:10D2F00008400020FFF7A6BF0120BDE8084001F06C
:10D30000E1BA00BF1C030020F4020020074BD3E861
:10D31000EF2F22F00201C3E8E01F0028F7D1D30766
:10D3200002D4012001F022BB704700BF1C03002083
:10D330001FB500220123CDE902236B46084ACDF830
:10D3400000D0CDF804D003F0DCF8002805DB4FF462
:10D3500080420023684602F079FA05B05DF804FBCC
:10D36000D50401002DE9F843012206463949D1E8E8
:10D37000EF3FC1E8E02F0028F9D133B936493748EB
:10D380004B60CB608A6002F0A4FE731E012B32D882
:10D39000012E07D14FF05023D3F81C3403F00303C0
:10D3A000022B28D003F083FB044618B92C4B1B78C2
:10D3B000002B47D14FF02003EFF3118583F3118841
:10D3C000BFF36F8F0124274FDFF89C80DFF89C901C
:10D3D0004FF05022D2F81834D2F81824D2030CD5CA
:10D3E00003F00303022B01D0012E06D124B385F3F1
:10D3F0001188BFF36F8FBDE8F883C4B1284600F0F1
:10D40000DDFA4FF05022D2F81835DBB2012BDFD114
:10D4100039680029DCD00021396039680221C2F85E
:10D4200018152022C8F88021C9F80030D0E7002163
:10D43000212002F0C3F9E4E74FF050230222C3F8A1
:10D440000423D8E74FF0502302220546C3F80823EF
:10D45000B9E700BF200300206C02002098020020E2
:10D46000660900200451005000E100E0085000501F
:10D47000044A1368C81A20F07F400344136002F086
:10D48000B5BB00BF300300202DE9F0474FF48037D3
:10D490004FF00009860000F1500406F15026A40068
:10D4A00006F58036A4B204F15024D6F84035DFF8F2
:10D4B0006C8021F07F4504F580348740D8F804A5BE
:10D4C000A3EB0A0323F07F432AF07F42012BC6F827
:10D4D000402502D1132003F0F0FA0AF10202AB1A40
:10D4E00023F07F43B3F5000F88BF1546C4F80090C2
:10D4F000236825F07F43C8F84473C6F84035D8F850
:10D5000004359A4506D0EB1A023B23F07F43B3F56E
:10D51000000F01D8BDE8F0872B46CFE7005001503F
:10D52000F8B5002427460F4E0F4B104A18461D68C9
:10D5300004B1F8BDD2F80413C903FAD53168002943
:10D54000F7D0346031684FF48031C2F848130124B9
:10D55000D2F8401525B100205A681F60A847E3E7BC
:10D560000560E6E7405101502403002000500150BF
:10D5700038B500244FF480334FF400120D4D0121D3
:10D58000C5F80845C5F804330B4B1520C3F88021B6
:10D59000224600F0B3F9152000F092F90123074A62
:10D5A00002201360064A2B601360FFF7DBFE204663
:10D5B00038BD00BF0050015000E100E008500150AC
:10D5C0002C030020134BB0F1FF3F08BF1846013871
:10D5D00000281CDD9842A8BF18460F4BD3F804253D
:10D5E0000E4B1968521A12F4000F18BF002022F0D7
:10D5F0007F4301330A4A03440A4810600020506008
:10D60000044A934294BFC9188918FFF73DBF002010
:10D61000E3E700BFFFFF7F00005001503003002010
:10D620002403002071D400004FF02002EFF3118397
:10D6300082F31188BFF36F8F064AD2F80405064AB9
:10D640001268801A20F07F4083F31188BFF36F8F38
:10D65000704700BF0050015030030020014802F025
:10D66000A9BB00BF380E010008B508B34368042BFE
:10D6700007D0082B13D0F3B1006801F0E3FC0020C1
:10D680000CE000220368D3E8EF1F012903D1C3E8AF
:10D69000E02F0028F7D1094808BF104608BD0368ED
:10D6A00000201B78064A03F5807342F82300F5E753
:10D6B0006FF4E040F2E70348F0E700BFE98FFFFFB7
:10D6C00000000350EA8FFFFF10B5044618B90D4B58
:10D6D0000D485B689847616808290DD031F0040354
:10D6E0000AD011F0020108D02146084801F008FCD8
:10D6F000002323600023636010BD1422206802F021
:10D70000A3FFF7E7480000200810010034030020C1
:10D7100010B5044618B9164B16485B6898476368FD
:10D72000042B23D0082B21D0CBB92368BBB94FF0F1
:10D73000FF324FF0FF3321460F4801F0AFFB08B92D
:10D7400023681BB90A4B0D485B68984714220021D7
:10D75000206802F079FF636843F002036360206889
:10D7600003F0F2F8636843F00103636010BD00BF8B
:10D770004800002008100100340300202E10010092
:10D7800008B540B34368042B0BD0082B16D003B365
:10D7900000684FF0FF324FF0FF3301F0DBFB58B170
:10D7A00015E001220368D3E8EF1F002903D1C3E885
:10D7B000E02F0028F7D10AD1002008BD0368074AEE
:10D7C0001B7803F5807352F82330002BF4D0044803
:10D7D000F3E70448F1E76FF4E040EEE700000350A0
:10D7E000E98FFFFFEA8FFFFF08B5064940231422A7
:10D7F000054803F08EF8BDE808400449044802F0EB
:10D800002BBB00BF5003002034030020500E01004A
:10D81000400E0100094A0A49936809689867D96768
:10D8200008494B6843F080534B60002383F3118811
:10D83000BFF36F8F9368D86F704700BF080900204F
:10D84000040F010000ED00E013498A684FF0380032
:10D850001044EFF3098C80E8F01F202080F311883A
:10D86000BFF36F8F0D4F4FF000668A6A8A603E608B
:10D87000906F0023936780F3118802F1380090E8DD
:10D88000F01F8CF3098802F1000004B502F05EFE7F
:10D89000BDE80440704700000809002004ED00E0E6
:10D8A0001EF0040F0CBFEFF30880EFF309808169CD
:10D8B00011F8021C0229FFD001B502F04DFE01BD96
:10D8C00043B2002B08DB012200F01F0002FA00F037
:10D8D000024A5B0942F82300704700BF00E100E004
:10D8E000054B420953F82220012300F01F0003FAE0
:10D8F00000F01040704700BF00E100E043B2002B91
:10D9000001F10101ACBF03F16043064B4FEA411145
:10D91000C9B2ABBF03F5614300F00F0083F80013F9
:10D920001954704714ED00E042F8203C009B0B496D
:10D9300042F81C3C019B21F0010142F8183C029B7B
:10D9400042F8081C42F8143C4FF0807342F8043C43
:10D950000023203A82658367704700BF650101009C
:10D96000044608B50E46154600F00AFA084B9C60BE
:10D97000A36E83F30B88284686F30988002163B6DB
:10D9800081F31188BFF36F8F0022002302F0EAFBBE
:10D9900008090020014910220A60704710ED00E0DC
:10D9A00072B6404080F31188BFF36F8FBFF34F8F83
:10D9B00030BF62B6BFF36F8F704700BF72B6494089
:10D9C00081F3118820BF80F3118862B6704700BFD1
:10D9D00030BFFFF7FDBF00BF0E4A08B50E4B22F067
:10D9E0007F029A60BFF34F8FBFF36F8FD3F8882009
:10D9F00022F47002C3F88820EFF3148323F00403A9
:10DA000083F3148801F084F901F0F8FF00F08AF93B
:10DA100001F0A2F900C2000000ED00E001B572B60D
:10DA20000B4A506A00281EBF0021516202F06FFFAE
:10DA300062B6EFF30580A0F110004FEAC00005497F
:10DA4000014409C99847BDE801400349084700005F
:10DA500008090020C40B010079DC0000002080F3DD
:10DA60001488BFF36F8F002080F30A8880F30B883F
:10DA700002F0C0FC00200E490860BFF34F8F0D4834
:10DA800080F3088800F028F9202080F311880A48E4
:10DA90004FF40061401880F30988EFF314800221ED
:10DAA000084380F31488BFF36F8FFFF795FF0000E2
:10DAB00094ED00E0680D0020A80E0020EFF3088030
:10DAC000EFF3098101B5724600F056F801BD00BFC1
:10DAD0000E4B9A6A9A6A9A6A920708D55A6B9A6AA2
:10DAE000120604D518B19A6A22F080029A620020C8
:10DAF000064B9A6A9A6A9A6AD20658BF9A6A9A6AD2
:10DB000042F0FF029A620870704700BF00ED00E02B
:10DB10000D4B9A6A9A6A9A6A920508D59A6B9A6A24
:10DB2000120404D518B19A6A22F400429A620020C5
:10DB3000054B9A6A9A6AD20558BF9A6A9A6A42F461
:10DB40007F429A620870704700ED00E0094B9A6AC4
:10DB50009A6A986A9A6A9A6A9A6A9A6A9A6A10F4A7
:10DB600080106FEA02426FEA124218BF02209A62E6
:10DB7000704700BF00ED00E070B5364B0E465B68A5
:10DB800000258AB0C3F3080385F31188BFF36F8FB4
:10DB900002F07F41B1F17F4F11D102F00C01082951
:10DBA0000DD0110701D4064601250022033B8DF854
:10DBB0000720032B47D8DFE803F0043E423B2E4604
:10DBC000F3E7244BDA6A92073DD4DC6A14F0804410
:10DBD00008D028331B78EBB101200DF10701FFF7C6
:10DBE00077FF04469DF8073093B92022314602A8FA
:10DBF00002F0FFFC099B45B3C3F3080222B96FEAA8
:10DC000053236FEA43230993204602A902F0A2FCA2
:10DC10000AB070BD104B1B782BB101200DF107012C
:10DC2000FFF776FFDDE70D4B188884B2002CD9D0C2
:10DC3000FFF78CFFD5E700200DF10701CFE70020AB
:10DC40000DF10701ECE70024CCE723F4FF7323F088
:10DC50000103D8E700ED00E029ED00E02AED00E047
:10DC6000044B5A6942F010025A615A6942F48062C8
:10DC70005A61704700ED00E0044B9968986A884249
:10DC800003D003494FF080520A6070470809002012
:10DC900004ED00E0BFF34F8F0549064BCA6802F45C
:10DCA000E0621343CB60BFF34F8F00BFFDE700BFBF
:10DCB00000ED00E00400FA0500231846054A11684B
:10DCC000C1F307218B4200D170479360106101338B
:10DCD000F8E700BF90ED00E010B572B6002484F3C1
:10DCE0001388FFF7E9FF0E4A234611464FF0FF3431
:10DCF00003F120000133102B42F82040F8D100231B
:10DD00004FF0FF3003F160020133102B41F8220085
:10DD1000F8D162B6BFF34F8FBFF36F8F10BD00BF56
:10DD200000E100E0002320210348C2180133452B05
:10DD300082F80013F9D1704700E100E008B50E4BFE
:10DD40009B68834207D1EFF3058393B10B4A536875
:10DD500043F08053536001F083FB4FF02003EFF357
:10DD6000118083F31188BFF36F8FBDE8084002F084
:10DD7000F2BD01F023FE00BF0809002000ED00E025
:10DD80001FB5094C094A23460121094800F002F950
:10DD900000230393074B0121E41A01A80193029485
:10DDA00000F002F904B010BD00E0072000000020E0
:10DDB000640E01006001002010B50B680C7A23F09E
:10DDC0001F0204F01F031A43CB68640923F01F03EA
:10DDD000044943EA440343F001038860CA600B61CD
:10DDE00010BD00BF90ED00E02DE9F04F88461446CD
:10DDF00006464FF000094A4D85B0C14505DA7768FF
:10DE0000BFB31F2F05D86FF01504204605B0BDE83D
:10DE1000F08FFB06F7D1D6F800A01AF01F0FF2D151
:10DE2000504602F0C1FB834607EB0A00013802F0BE
:10DE3000BBFB8345E7D11BF1160FE4D0631E5B45A6
:10DE4000E1DBC5F808B0E968C5F808B02F6921F032
:10DE50001F01D6E900321A44994247F01F0702F128
:10DE6000FF3A1CD1574508D131465FFA8BF002F0DA
:10DE70007EFB09F101090C36BFE73146C5F808B051
:10DE8000EB6822F01F0203F01F031A43EA60E0B2BE
:10DE900002F06DFB10F1160FB5D0441CE9E7013B11
:10DEA0005745E0B223F01F03C5F808B006D12A6930
:10DEB000314602F01F0213432B61E9E7296901F0A3
:10DEC0001F010B432B61314602F051FB10F1160F7D
:10DED00099D0C5F808B0EA689DF80830013F62F3B0
:10DEE00004038DF808302B699DF808205B0863F364
:10DEF00047128DF80820D6E900321344009323F02E
:10DF00001F033B44441CA3EB0A0AE0B22AF01F03A0
:10DF1000072803933FF677AF6946FFF74DFFBCE74D
:10DF200090ED00E00522034B5A60BFF34F8FBFF323
:10DF30006F8F704790ED00E0BFF35F8F0022014BC1
:10DF40005A60704790ED00E038B50E4C2568082DFA
:10DF500014D8FFF7F1FF00200B4B0C4A1A638542DF
:10DF600005D10B4B1D70FFF7DDFF002038BD616848
:10DF700001EB0011FFF720FF0130F0E74FF0FF3019
:10DF8000F4E700BF700E010090ED00E0AAFF44002E
:10DF90006409002010B5034C2278FFF725FF20709C
:10DFA00010BD00BF640900202DE9F74F264D8A46B9
:10DFB00006464FF00008AB46244FD0451BDAD6F892
:10DFC0000490B9F1000F39D031680846019102F090
:10DFD000EBFA0199044609EB0100013802F0E4FA7A
:10DFE00084424FF014021A4B08D06FF0150302FB65
:10DFF00008F84BF8083003B0BDE8F08F14F1160FA5
:10E000002C60F8D01978A142F5DD02FB08B0BC60A5
:10E01000BC60FC6800F10801007B64F30400087137
:10E0200038690C79400860F347140C71F96821F0E5
:10E030001F016960396921F01F01296108F1010898
:10E0400014350C36B9E700BF5008002090ED00E011
:10E0500064090020014B1860704700BF24000020B5
:10E0600008B5094B1A786AB901210D2019700521EC
:10E07000FFF744FC0D20FFF723FC4FF00042034B59
:10E08000C3F80423002008BD6509002000D000501B
:10E090002A4BF0B544682A48134083423FD00DD83C
:10E0A000062B15D005D89BB1022B3AD06FF0150086
:10E0B00034E0B3F5801FF9D1012309E02148834200
:10E0C00031D0B3F5A00F30D0B3F5800FEED10223DD
:10E0D000D0064CBF0326C2F3401682F48075970524
:10E0E000C2F34020C5F3002506D512F4006F67681F
:10E0F0001DD001228A40BA60277A134A134C01F0DE
:10E100001F01012F08BF144640EA4502002042EAE1
:10E11000032343EA8603803144F82130F0BD07230E
:10E12000D6E70423D4E70523D2E70323D0E752053B
:10E1300042BF01228A40FA60DEE700BF0600F0001D
:10E140000600100002004000002884500025845082
:10E1500010B5094B094C00F01F024009012808BF07
:10E16000234603EB8203D3F8002222F4403242EA32
:10E170000142C3F8002210BD0025845000288450BD
:10E18000F7B50E46416806F01F05097AB2F5A03FC3
:10E19000C76845EA411511D15F4CDFF888C16809AD
:10E1A000012814BF2046604605F01F01803150F859
:10E1B0002110C80707D56FF0220093E0B2F5005F89
:10E1C000F96800F091800121F868B1400143F960DD
:10E1D00001217869B140B2F5A03F0CBF08438843E4
:10E1E00078610020BA69B3F5C02F0CBF0A438A4397
:10E1F000BA613A69B3F5802F0CBF114322EA0101DD
:10E20000464A3961D2F80433DBB200F5A27152F804
:10E210002110C1F305218D426BD123FA00F1C9070A
:10E2200067D5830003F1A04303F55043D3F81015DD
:10E2300021F00101C3F8101501238340C2F808330F
:10E24000C0B200F075FC28460021FFF781FFF86896
:10E25000F04010F0010045D07869F04010F0010462
:10E260004ED0BB690DF10700F340DB0757BF39699A
:10E27000032621FA06F606F001065CBFC6F1020687
:10E28000F6B200F077FC264B984236D100209DF87C
:10E2900007102D028B0003F1A04303F55043D3F880
:10E2A000102505F47C5522F44F3222F44072C3F855
:10E2B0001025D3F8102515438A0002F1A04202F57B
:10E2C000514245EA0646C3F8106510601268D3F85B
:10E2D000102542F00102C3F8102501230F4A8B409C
:10E2E000C2F8043303B0F0BD0120B04021EA0001C0
:10E2F0006DE70130082888D1A5E76FF01200F1E73B
:10E3000039692846F14001F00101C1F10301C9B2A8
:10E31000FFF71EFF2046E5E70025845000D000509F
:10E320000000AD0B00288450F7B50026CDE900664B
:10E33000264D2C684CB1264802F00FFA0090254873
:10E3400002F00BFA01902E602B6800220126944601
:10E35000214DD5F8043306FA02F119421BD0910081
:10E3600001F1A04101F551410B68A3B102F5A2737F
:10E3700055F8233002AFC3F3403007EB800050F86C
:10E38000087CC3F3042306FA03F33B43C1F800C03F
:10E3900040F8083C0B680132082ADAD1009A1AB119
:10E3A0000B490E4802F076F9019A1AB109490C4856
:10E3B00002F070F944B1064802F0F7F9054803B0DD
:10E3C000BDE8F04002F0F1B903B0F0BD7CD10050DF
:10E3D000D8000020E800002000D00050680800208D
:10E3E00084080020F0B54B79012B2BD0032B26D1CC
:10E3F00010278B79032B22D1CD7925B1012D1ED188
:10E4000043681B79DBB10A79012A1DD0022A1FD08B
:10E41000AAB914460B684668B3F5164F36686ED035
:10E4200033D8B3F5165F6DD01CD8B3F5966F6BD0AB
:10E4300010D8B3F5967F6AD0B3F5167F6AD06FF027
:10E4400022005BE00027D4E74FF480740E22E1E75E
:10E450000024FBE7B3F5166F5FD0B3F5965FEED1FE
:10E46000384B3EE0B3F5E14F5AD007D8B3F5615FC2
:10E4700058D0B3F5964FE2D1334B32E047F6122C29
:10E480006345DCD14FF400032BE0B3F5613F4BD083
:10E4900013D8B3F5963F4AD009D84DF6C02C634542
:10E4A00047D0B3F5614FCAD14FF46B0319E0B3F510
:10E4B000E13FC4D14FF0EB7313E0B3F5612F3BD0D4
:10E4C00009D8DFF898C0634539D0B3F5E12FB6D14C
:10E4D0004FF0E86305E0DFF888C06345AFD14FF047
:10E4E0008053C6F82435C3682C433A43224304338F
:10E4F00003C9C6F86C2583E803000020F0BD4FF483
:10E500001D03EEE7114BECE74FF49E23E9E74FF4D0
:10E51000A033E6E74FF41C33E3E74FF41D23E0E7B5
:10E520000B4BDEE70B4BDCE74FF06C73D9E70A4B84
:10E53000D7E74FF46503D4E74FF07063D1E74FF0AE
:10E540008063CEE700B0130000A04E00005027000B
:10E5500000C0750000F03A0000903A0190D003002E
:10E5600040420F002DE9F04106468846C76802F098
:10E570009EFAB8B9284B1B7883F0010372681568BE
:10E5800093B14FF02003EFF3118483F31188BFF3AD
:10E590006F8F304602F05EF938BB84F31188BFF309
:10E5A0006F8FEEE70123E9E76424304602F052F969
:10E5B00070B9012002F07EF9013CF6D10021212042
:10E5C00001F0FCF8F0E784F31188BFF36F8FF5E7F3
:10E5D0004FF02003EFF3118483F31188BFF36F8FA3
:10E5E000304602F037F90028EDD00123002207F869
:10E5F000108FC5F84475C5F84835C5F82021D5F801
:10E600002011C5F85821D5F85821AB6084F3118842
:10E61000BFF36F8FBDE8F08166090020074B084902
:10E6200000F01F024009012814BF1846084602F1F5
:10E630008003032240F82320704700BF0025845048
:10E6400000288450064B074900F01F0240090128AA
:10E6500014BF18460846012393408360704700BFEB
:10E660000025845000288450F8B505460027012174
:10E6700000220820FFF742F90820FFF721F96B6814
:10E68000EE681C681420C4F800753560FFF7DAFFE7
:10E690001420FFF7C3FF14222C4B1320C3F8587229
:10E6A000C4F80C251622C4F81425C3F85472FFF7D9
:10E6B000C9FF1320FFF7B2FF1323C4F80835152351
:10E6C000E9682846C4F810350431FFF78BFE074689
:10E6D000002836D16B689B799BB106F1120000F0DF
:10E6E0000BFA1B4B98422ED1B37C43F00043C4F885
:10E6F000A031C4F88C300123B27C9340154AC2F893
:10E7000004350823C4F800350023C4F81031D4F8C8
:10E71000103106F11103C4F834350123C4F838353B
:10E7200023606B689B791BB94FF48073C4F8043382
:10E7300000231036C4F84465C4F848350123A360AB
:10E74000E3603846F8BD6FF00407FAE7002584500F
:10E750000000AD0B00700150064B1B68072B07D162
:10E76000054B1B68023B032B02D8044AD05C704760
:10E77000002070473001FF003401FF0083100100CA
:10E780004FF05023D3F85825034B02F00302D34037
:10E79000024A1360704700BF0020A1073C00002020
:10E7A00008B5FFF7D9FF48B1354B1A6832B90D21CA
:10E7B00019600121A3F5827319601A600022D30049
:10E7C00003F57F03D3F80013013107D0D3F800130A
:10E7D0000132D3F80433202A0B60F0D1FFF7BCFFDD
:10E7E000002846D1FFF7B8FF38B1264B264A1A60F9
:10E7F0004FF050230122C3F85825244B1B68072BE8
:10E8000002BF0022224B1A60FFF7A6FF50B14FF063
:10E810005023D3F80024D10742BF0022C3F81421AB
:10E82000C3F81821194B1B68072B09D14FF050234F
:10E83000D3F80024D20744BF6FF00102C3F80024CC
:10E84000FFF78AFF10B16522124B1A60124AD2F804
:10E850008C3043F44063C2F88C30104A104B11687E
:10E86000C3F84415D269C3F84C25BDE80840FFF74A
:10E8700087BF2922074B1A6003221A63B2E700BF41
:10E88000204A0050309503504400EFBE3001FF0095
:10E890004C2503500C47005000ED00E00080FF00C5
:10E8A00000600050044B1A7922B9012218601A71D5
:10E8B00002487047024870479C0800200000AD0BDA
:10E8C0000C00AD0B032847D8DFE800F002222D3AF8
:10E8D0004FF05022D2F81834D2F81814C90311D5C9
:10E8E00003F00303022B0DD1C2F8183500221B4B95
:10E8F0001A601B6802224FF05023C3F80423012240
:10E900009A6070474FF050230122C3F81825EDE7B5
:10E910000022134B1A601B6801224FF05023C3F8EA
:10E9200004231A60704700220E4B1A601B684FF4D4
:10E9300000724FF05023C3F8042301221A6270477B
:10E940000022094B1A601B684FF480724FF050236D
:10E95000C3F8042301229A61704700BF045100509C
:10E9600000510050245100502051005070B5044611
:10E9700003283ED8DFE800F002223E4B4FF0502340
:10E980000222C3F80823002203F582731A601B6871
:10E99000284B012242F210754FF050261A60022CCB
:10E9A00042D0032C43D024BBD6F81834DB0320D547
:10E9B000012001F07FFF013DF1D11AE001234FF06A
:10E9C0005024002142F210751B4AC4F8083311602C
:10E9D00012681A4A1360D4F80C34D4F80C2403F0EB
:10E9E0000103D20305D523B1012001F063FF013DEE
:10E9F000F1D170BD4FF050234FF40072C3F80823DB
:10EA0000002203F592731A601B680D4BC1E74FF0AB
:10EA100050234FF48072C3F80823002203F590734B
:10EA20001A601B68074BB4E7D6F85C34BEE7D6F82B
:10EA30005434BBE70C5000500051005004500050BB
:10EA4000245000501C500050264B10B51A6852B18B
:10EA5000002018601B6801224FF05023C3F80823E0
:10EA6000214B1B689847214B1A688AB100221A6013
:10EA70001B684FF05023D3F81824D3F8181402F071
:10EA80000302012A4FF0020124D1C3F818159A603D
:10EA9000174B1A6862B100221A601B684FF480722B
:10EAA0004FF05023C3F808230F4B04201B689847EE
:10EAB000104B1A68AAB1BDE8104000221A601B680A
:10EAC0004FF400724FF05023C3F80823064B052083
:10EAD0001B681847C3F80813034B01201B689847AD
:10EAE000D6E710BD005100509C0800200451005092
:10EAF00020510050245100500A4A70B51468E64372
:10EB00000ED00023D9B226FA01F5ED0703F1010377
:10EB1000F8D501238B40234301700348136070BD77
:10EB20000248FCE7A40800200000AD0B0200AD0B7A
:10EB3000012303FA00F010F0FF0F12D04FF0200372
:10EB4000EFF3118183F31188BFF36F8F064AD36D02
:10EB500023EA0000D06581F31188BFF36F8F03486B
:10EB600070470348704700BFA80800200000AD0BA5
:10EB70000400AD0B2DE9F041FF22002401260546DB
:10EB8000DFF858E01448DFF85880E3B24FF0200176
:10EB9000EFF3118C81F31188BFF36F8F22FA03F129
:10EBA000C9070AD5DEF85C1006FA03F7394201BF3F
:10EBB00040463943CEF85C102B708CF31188BFF3BC
:10EBC0006F8F404505D006FA03F39A4304F1010420
:10EBD000DBD1BDE8F08100BF0200AD0BA80800202A
:10EBE0000000AD0BF8B5104B104F53F8205001301A
:10EBF00053F82060AE4200D8F8BDD5E90034204675
:10EC0000984770B16CB10123E41B094A24116109D2
:10EC100052F8210004F01F0403FA04F4044342F8FC
:10EC200021400835E6E700BFF00E0100A8000020F3
:10EC300008010020084BC01A0011084B420953F884
:10EC40002220012300F01F0003FA00F010420CBF45
:10EC500018460020704700BFA800002008010020CF
:10EC6000114970B505460E46104C8C4204D10F4C2C
:10EC7000B4420AD1002414E02046FFF7DBFF10B1B4
:10EC80002368AB420DD01034EFE72046FFF7D2FFE8
:10EC900008B91034ECE72846216801F09EFC0028F2
:10ECA000F7D1204670BD00BF08010020A800002059
:10ECB000F8B505460027154E4FF02002EFF31183FB
:10ECC00082F31188BFF36F8F286988B12F6183F3B6
:10ECD0001188BFF36F8F00F0C3FB4FF02003EFF3F9
:10ECE000118083F31188BFF36F8F01F034FEE3E7E7
:10ECF00001F0FDFE012104460228D8BF084601F0BC
:10ED000006FF7462FEF74CFED6E700BF080900203C
:10ED10000248034A0021121A01F096BC600100204B
:10ED200068090020012208B5094B02201A70FFF77C
:10ED300059FF00F057FE0320FFF754FF00F0E0FDFD
:10ED4000FDF786FC034A137B23F00103137308BD10
:10ED500066090020E00100202DE98048344BA7B06F
:10ED600003F5006989F3088883F30A880024E02307
:10ED7000304D4FF0010B85F82230EC772C766C7615
:10ED8000AC766B6A2C4E43F4E0236B62FEF768FFAF
:10ED9000FEF700FE4FF0FF33AB62EB6240F201136F
:10EDA000264DADF8243006ABAB602046CDE92044BB
:10EDB000FFF718FF0120FFF715FFDFF898A000F01C
:10EDC000A3FC1F4BAE624FF480621E490593304690
:10EDD0005346CDE9034BCDE90144009400F060FDBA
:10EDE000737B804623F004033046737301F0DFFD2C
:10EDF0000F23154F4FF4A072CDE902431349144B72
:10EE00003846CDE904B4CDE9005400F049FD7B7BE0
:10EE1000524623F004037B7305F11C034146304640
:10EE2000C5E90733EF602C76C5F80490FEF798FD2E
:10EE3000A80E002000ED00E0E001002008090020FD
:10EE4000871001006809002060010020680D002083
:10EE5000B1EC000025ED000070B50E4B0E4CA34246
:10EE600001D3002070BDD3E9030141EA000212F092
:10EE700003020BD19D685A61AA4201D11C33EEE70F
:10EE80005E6901320E6059610144F5E76FF01500CB
:10EE9000E8E700BF0C0100200C010020D3B50C46B0
:10EEA00016461F464FF02003EFF3118183F31188BC
:10EEB000BFF36F8F43695BB123601B684361836954
:10EEC00001338361002081F31188BFF36F8F11E05C
:10EED00056EA070203D16FF00B002360F3E7024606
:10EEE000CDE90067044800F07DFB18B9034B9B682F
:10EEF0005B69236002B0D0BD6709002008090020CB
:10EF0000F8B504460D464FF02003EFF3118683F366
:10EF10001188BFF36F8F47696FB901F0A3FD50B13E
:10EF20002A68C767426101F042FD3146BDE8F840FA
:10EF3000074800F00FB92B6862691A602B6863619B
:10EF4000A369013BA36186F31188BFF36F8FF8BDFE
:10EF5000670900202DE9F341044616461F464FF08D
:10EF60002003EFF3118883F31188BFF36F8FC36819
:10EF7000324A6BB180689168884219D056EA07031B
:10EF800018D188F31188BFF36F8F6FF00F000CE07A
:10EF9000916891F90E100133E36093682161A360D9
:10EFA00088F31188BFF36F8F002002B0BDE8F081B5
:10EFB0002169F0E790F90E3091F90E109942A8BF3F
:10EFC000194621EAE17199422CDA00F059FB054615
:10EFD00022464146CDE90067194800F003FB0028AE
:10EFE000E3D04FF02003EFF3118683F31188BFF3D2
:10EFF0006F8F23682169A34207D033B193F90E3094
:10F000009942A8BF194621EAE171A06890F90E3033
:10F01000994209D16DB13146094800F09BF86FF073
:10F020000A00C2E70025D3E700F02AFB0028F2D14E
:10F03000F0E786F31188BFF36F8FF0E7080900202F
:10F040006709002038B583680446002B36D01E4A75
:10F050009268934235D1DA7B013ADA73C368012BA7
:10F0600005D0013BC36000F0D9F8002038BD4FF057
:10F070002003EFF3118583F31188BFF36F8F0169CC
:10F08000806890F90E30994201D000F0F9FA2046DC
:10F0900001F0E8FCA06058B190F90E202261002236
:10F0A000C26701F084FC2946084800F053F8DAE70B
:10F0B000E06085F31188BFF36F8FD4E76FF0150020
:10F0C000D4E74FF0FF30D1E708090020670900209E
:10F0D00010B5084C23685BB1FEF7A6FA034620681A
:10F0E000054A03440021BDE81040536101F00FBD03
:10F0F00010BD00BF4409002008090020F8B50546EE
:10F100000C464FF02003EFF3118683F31188BFF311
:10F110006F8F00224FF4004740F2E73000210A4B86
:10F12000E7FB05015A614FF47A720023FDF712F9EB
:10F13000064B1860064B1C60FFF7CAFF86F3118868
:10F14000BFF36F8FF8BD00BF0809002044090020FD
:10F150004009002049B9EFF3058030B9054B9A6AA0
:10F160009B689A4201D0FEF755BB81F31188BFF32B
:10F170006F8F7047080900204FF02003EFF31181D3
:10F1800083F31188BFF36F8F044B9A68D37B013BE5
:10F19000D37381F31188BFF36F8F70470809002084
:10F1A000094B03F12C02824205D19B688B4202D1AC
:10F1B0004B7BDB0606D1D1E9003213605A60002395
:10F1C000C1E90033704700BF0809002038B5124C70
:10F1D00001462369A2680BB1E5680CE004F12C003C
:10F1E00001F0DBFB0546537B980644BF43F0080360
:10F1F0005373002DF0D049B9537BDB0606D1AB69C0
:10F2000023B9D3897F2B01D9A26238BD954201D0A1
:10F21000FFF75EFFA562F8E70809002010B54FF080
:10F220002003EFF3118483F31188BFF36F8F084B32
:10F2300000209A68D37B0133D373FFF7C7FF84F3B1
:10F240001188BFF36F8FBDE8104001F090BB00BF85
:10F250000809002070B490F90D20437B002A2CDBB4
:10F26000DB062AD1836943BB154A114651F82C4F5E
:10F270008C4218BF2346002B38BF0023146BB3B158
:10F2800090F90E6093F90E50AE4203DBA3420ED00C
:10F290001B68F4E75A68C0E9003210605860437B8D
:10F2A00063F07F03437370BC0020FFF78FBFC0E99A
:10F2B0000014136B18601063F1E770BC704700BF57
:10F2C0000809002010B54FF02002EFF3118482F3FB
:10F2D0001188BFF36F8F427B510704D484F31188E8
:10F2E000BFF36F8F10BD22F004024273FFF7B2FF2D
:10F2F0002146BDE810400148FFF72CBF67090020F8
:10F3000070B590F90D300146002B02DA1748FFF76F
:10F3100047FF174A104650F82C3F146B834208BF32
:10F320000023002B38BF0023D3B191F90E6093F96D
:10F330000E50AE4203DBA34212D01B68F4E75868BC
:10F34000C1E90030016059604B7B906863F07F0336
:10F350004B73431A58425841BDE87040FFF736BF1F
:10F36000C1E90004136B19601163EDE73409002053
:10F3700008090020014670B54FF02003EFF3118417
:10F3800083F31188BFF36F8F164B174A986815687F
:10F39000A8421D4606D1FFF79BFE84F31188BFF3F8
:10F3A0006F8F70BD00261660104A1268BAB1C2890C
:10F3B0007F2A14D8427BD20611D10D4A90F90E60F3
:10F3C000126896420BDB0B4A904208D05A698A4277
:10F3D00002DCFFF795FFDEE7521A5A61DDE70023F2
:10F3E0006B61DAE7080900203C090020440900208D
:10F3F000400900206001002070B50446183001F07B
:10F4000060FB4FF02003EFF3118683F31188BFF305
:10F410006F8F94F90D30002B07DA21460E48FFF765
:10F42000BFFE637B03F07F0363730C4D637BA868AF
:10F4300043F010036373031B58425841FFF7C6FEA5
:10F4400086F31188BFF36F8FAB68A34203D1BDE889
:10F45000704001F08CBA70BD34090020080900200A
:10F460002DE9F04104464FF02003EFF3118283F3BE
:10F470001188BFF36F8F437B13F0280F05D082F301
:10F480001188BFF36F8FBDE8F08143F02003437311
:10F4900082F31188BFF36F8F183001F012FB4FF029
:10F4A0002003EFF3118683F31188BFF36F8F637B23
:10F4B000D80616D1A269A2B9190607D52146264851
:10F4C000FFF76EFE637B03F07F036373234B986843
:10F4D000021B50425041FFF779FE002704F130082B
:10F4E0001DE09B07F9D52146A068FFF759FE637B15
:10F4F00023F0020363730023A360EEE705F1180015
:10F5000001F0DFFAA8682946FFF74AFE6B7B284620
:10F5100023F002036B73AF60EF67FFF79BFE256B71
:10F52000454501D0002DE9D10C4B9A680C4B9A420D
:10F5300002D10120FFF74AFE637B43F008036373A7
:10F54000236E86F31188BFF36F8F002B9BD020466C
:10F55000BDE8F041184700BF340900200809002029
:10F560006001002008B590F90D300146002B06DA45
:10F570000748FFF715FE4B7B03F07F034B73054BEA
:10F580009868431A58425841BDE80840FFF71EBE2C
:10F5900034090020080900202DE9F04106461446F0
:10F5A0001D464FF02003EFF3118783F31188BFF35B
:10F5B0006F8F01F02CFA87F31188BFF36F8F6B1CEC
:10F5C00008BFB4F1FF3F08D022462B4606F11800D1
:10F5D0000349BDE8F04100F07BBABDE8F08100BF0F
:10F5E000CF09010010B50C46064B11469868064B32
:10F5F0001860DDE90223FFF7CFFF2046BDE8104089
:10F60000FEF708B9080900203C0900202DE9F04167
:10F6100005460F4601F095FA04464FF02003EFF33C
:10F62000118883F31188BFF36F8F124E124BB068AD
:10F630002C441860FFF796FFB06810492A463B46F5
:10F64000183000F045FAB2684046537B002543F07D
:10F6500010035373FEF7DEF801F073FA241A65F114
:10F660000005002C75F10003B8BF00242046BDE85A
:10F67000F08100BF080900203C090020CF090100EB
:10F680002DE9F04104464FF02003EFF3118883F396
:10F690001188BFF36F8F437B4EB2DB062ED1856995
:10F6A00065BB184F214607F12C00FFF779FDFB6A77
:10F6B0003A6B834218BF1D46002D38BF0025A67344
:10F6C000B5B195F90E10B14203DCAA4210D02D68F5
:10F6D000F6E76A68C4E9005214606C600120FFF725
:10F6E00075FD012088F31188BFF36F8FBDE8F081AD
:10F6F000C4E900023B6B1C603C63EFE70020A6738B
:10F70000F0E700BF080900200021044B084603F180
:10F710002C02C3E90B22FFF7F1BC00BF080900204F
:10F72000F8B5244C244BA2689A4230D04FF0200305
:10F73000EFF3118583F31188BFF36F8FA16804F194
:10F740002C00FFF72DFDE36AA268834208BF002367
:10F75000002B38BF0023216B2BB392F90E7093F965
:10F760000E60B74203DB8B421DD01B68F4E759687B
:10F77000C2E900310A605A60537B012063F07F03C5
:10F780005373FFF723FD85F31188BFF36F8F4FF09D
:10F790002003EFF3118083F31188BFF36F8FBDE86F
:10F7A000F840FEF737B8C2E90001236B1A60226304
:10F7B000E2E700BF0809002060010020B1F1FF3F2F
:10F7C00008BFB0F1FF3F08B502460B4606D10B4B10
:10F7D0009868FFF711FE4FF0FF3008BD13430AD1C0
:10F7E000FFF79EFF00204FF47A7380FB0323D00BBA
:10F7F00040EA4340F1E7FFF709FFF4E7080900207A
:10F80000014B9868704700BF0809002038B50446CE
:10F810004FF02003EFF3118583F31188BFF36F8F4F
:10F8200001F020F948B10022C26701F0C0F8294672
:10F83000BDE838400448FFF78DBCD4E902329A4253
:10F8400018BF0133A360F2E76709002037B51446FB
:10F850001D464FF02003EFF3118183F31188BFF3AE
:10F860006F8F836843B1013B836081F31188BFF3DD
:10F870006F8F002003B030BD54EA050306D181F339
:10F880001188BFF36F8F6FF00F00F3E70246CDE9E9
:10F8900000450248FFF7A6FEECE700BF670900201D
:10F8A0002DE9FF4100F13005C0E90C550E9D0446DD
:10F8B0000573042545730D9DD61D857300250C9A8F
:10F8C00026F00706C0E90655C0E91A16C573056794
:10F8D00002920B9A01EB060801920A9A00924246A4
:10F8E000FEF722F8054BC4E917559B6803B15B6F1F
:10F8F0004046636704B0BDE8F08100BF08090020FE
:10F900002DE9F0472A4E2B4DB04686B0B54205F1A1
:10F91000300410D3FFF730FC4FF4004940F2E736D3
:10F920000027244CDFF890A0444521D306B0BDE861
:10F93000F047FFF773BC54F8043C059354F8103CAF
:10F94000049354F8143C039354F8183C029354F86D
:10F950001C3C019354F8203C009354E90A2354E9D9
:10F960000C01FFF79DFF54F8303CDD652546CDE7DF
:10F97000636A5A1C0DD03046394623EAE373C9FB4B
:10F980000301B94208BFB042256804D12846FFF7F9
:10F9900099FC3034C8E74FF47A720023FCF7DAFCA4
:10F9A00002460B4605F11800514600F091F8F0E7C9
:10F9B0000C0100200C010020CF09010008B54FF018
:10F9C0002003EFF3118483F31188BFF36F8F044B8F
:10F9D00098681861FFF710FD2046FDF71BFF00BF78
:10F9E00008090020024A0349034800F003BB00BF96
:10F9F000C11001008C1001009B10010008B50648E1
:10FA0000064A0749121A00F0F4FDBDE80840054A0D
:10FA10000549064800F0EDBD000000205C01002013
:10FA2000C410010000000000C4100100000000200C
:10FA3000034B1B680BB9FDF7F7BD0020704700BFF3
:10FA40004809002030B5036868B10A4A52689042FC
:10FA500009D043B1D3E90421D0E90445121945EB9B
:10FA60000101C3E90421426813605A600023C0E920
:10FA7000003330BD4000002038B5134B1C689C4259
:10FA800008BF0024FFF7D4FF0546BCB1D4E9040148
:10FA9000401B61EBE571012871F1000311DB6FF090
:10FAA00000420023824273EB010400DA1046074B48
:10FAB0005B6913B19842A8BF184638BD6FF000408B
:10FAC000F5E70020F3E700BF400000200809002010
:10FAD0002DE9F74F019119464B1C08BFB2F1FF3FCA
:10FAE000824670D06FF001034FF0FF3B541C41F190
:10FAF0000005B3EB04086BEB0509B8F1000F79F1D1
:10FB000000030FDBFFF794FF6FF00103344AD2E9E3
:10FB1000001C5B1A6BEB0C021E1B62EB0507341A10
:10FB200067EBE075019BCAF808304FF02003EFF354
:10FB3000118683F31188BFF36F8FFFF779FF012CD4
:10FB400075F10003BCBF01240025264B24181A6858
:10FB500045EBE0759A42CAE9044501D05F6852B9A5
:10FB60005A68CAF80030CAF804205A68C2F800A0DF
:10FB7000C3F804A014E0D2E90489DAE90445444555
:10FB800075EB090122DAB8EB040069EB0501C2E963
:10FB900004015168CAE90021C1F800A0C2F804A01C
:10FBA0001A689A420BD0924509D1FFF765FF18B148
:10FBB0000D4B5B69834202D00021FDF703FD86F304
:10FBC0001188BFF36F8F03B0BDE8F08FB4EB08006E
:10FBD00065EB0901BA42CAE90401C1D01268BEE767
:10FBE0006002002040000020080900202DE9F74FA6
:10FBF0000646FFF7BFFB4FF02003EFF3118483F3BA
:10FC00001188BFF36F8FDFF8B0A02A4D5146DFF89F
:10FC1000ACB02E60D5F800C0DBF800006246DAE92F
:10FC20000089D3175845CDE900230DD060B1D0E944
:10FC30000467B445BB411DDA009BB6EB030C019B86
:10FC400067EB0306C0E904C60026009B2E6013EB99
:10FC50000802019B43EB0903C1E90023FFF70CFFF6
:10FC60003146FDF7AFFC84F31188BFF36F8F03B00B
:10FC7000BDE8F08F0022002318EB060849EBE67977
:10FC8000C0E90423ACEB0606CAE900892E60FFF741
:10FC9000D9FE84F31188BFF36F8F836898474FF0C4
:10FCA0002003EFF3118483F31188BFF36F8F0249B0
:10FCB000B0E700BF4809002060020020400000209B
:10FCC00010B54FF02003EFF3118483F31188BFF3D5
:10FCD0006F8FFDF7A9FC064BD3E90023121843F1FF
:10FCE000000384F31188BFF36F8F1046194610BDCF
:10FCF0006002002038B5064C064DAC4201D300200E
:10FD000038BD2046D4E9011200F01FFF1434F4E797
:10FD10000C0100200C01002010B50A4C23681BB117
:10FD200001230020236010BD00F0B2F80028F7D0B6
:10FD30000138072803D8044B53F8200010BD0348AE
:10FD400010BD00BF4C090020080F0100FE8FFFFF0F
:10FD5000BFF34F8F0549064BCA6802F4E0621343B4
:10FD6000CB60BFF34F8F00BFFDE700BF00ED00E0A9
:10FD70000400FA054FF0FE33002130B4084A094C64
:10FD8000094D23602B601360E360EB60D360A361D7
:10FD9000064A074CAB616368C2F8001530BC1847CF
:10FDA00008548450005484500454845000408450BB
:10FDB00048000020024BD0E90012C3E9001270474E
:10FDC0004800002048B143682BB1BFF35F8F002388
:10FDD000036018467047024870476FF4E040704770
:10FDE000EA8FFFFF10B5044628B1636813B1002302
:10FDF0002360636010BD024B02485B689847F4E7DC
:10FE000048000020280F010010B5044630B1002240
:10FE10006368226043F00103636010BD0148FFF78F
:10FE2000A9FFF4E7500F010080B1436863B10122DC
:10FE3000D0E8EF3FC0E8E12F0029F9D1012BF7D03E
:10FE4000BFF35F8F00207047024870476FF4E040B7
:10FE5000704700BFEA8FFFFF70B40B4B0668C268A3
:10FE6000D0E90154C3E90242C3E90065D1E90302C4
:10FE70000E68064BD1E90154C3E90065C3E90240AD
:10FE80001A6170BC704700BF580000206800002055
:10FE900008B500F00FF828B900F00EF830B9044AA0
:10FEA000106008BD00F036F8032008BD042008BD2E
:10FEB0000C5A84500020704710B5114800F048F8E3
:10FEC00000B110BD0F4800F043F80028F9D10E4CE6
:10FED000204600F03DF80028F3D10C4B0C481C6084
:10FEE00000F036F801460028EBD100F02DF804466A
:10FEF00008B1204610BD00F03FF82046FAE700BFE9
:10FF0000A0000020940000209C000020A4000020FD
:10FF10009800002008B5084800F024F8074800F0D1
:10FF200021F8074800F01EF8064800F01BF8BDE86D
:10FF3000084000F00BB800BFA00000209400002093
:10FF40009C0000209800002000207047704700BFF0
:10FF500008B5034B02681B6810689847002008BD6D
:10FF60005800002008B5034B02685B68106898478A
:10FF7000002008BD5800002070B5094C094D2069CB
:10FF8000AB68984718B1084B08485B689847002150
:10FF9000074AEB6811602069BDE87040184700BF50
:10FFA000680000205800002048000020740F010065
:10FFB00060090020034658B1426802F00302012A9A
:10FFC00003D0032A04D1026812B100209860704760
:10FFD0006FF0150070474268034602F00302032ADF
:10FFE0004FF00002816014BF104600685A607047ED
:10FFF000002070470FB407B504A951F8040B019114
:020000040001F9
:10000000FCF73CFB03B05DF804EB04B07047038BD6
:1000100013F0070305D10368002B0CBF0020032059
:100020007047022B05D1438B002B14BF0020042006
:100030007047012B05D10368002B0CBF0020052061
:100040007047002070472DE9F0410D4607461946DC
:10005000281D90461E46FFF7BEFF044638B13346C2
:10006000424629463846A446BDE8F0416047BDE80F
:10007000F08110B44FF02004EFF3118284F3118863
:10008000BFF36F8F416110BC0121FCF705BB10B5B8
:100090000C4640B139B1081DFFF78CFF28B9A368A1
:1000A00033F0030301D06FF0150010BD38B50C46D6
:1000B000054658B151B10B6843B14B6833B11C22AE
:1000C000002100F0C1FA00202C6138BD6FF015004E
:1000D000FBE770B504460E46FFF7D9FF051E31DB7E
:1000E0004FF02003EFF3118183F31188BFF36F8F7B
:1000F0004FF6FF75638B208BAB4200F007022ED0CA
:10010000022A0ED1013363831546012381F311883E
:10011000BFF36F8FB3B1002331462046FFF793FF43
:1001200010E0830701D0062A0ED1002333606368F4
:1001300093B9C4E90066154662B90A462046022111
:10014000FCF7AAFA284670BD052A0CBF6FF02205FD
:100150006FF004050023D9E71E606660EBE76FF0DF
:100160000A05F7E7044608B5084611461A46A047AF
:10017000FFF746FBFDF7E2FD836800EBC101B3F535
:10018000004F2CBF51F8220031F81200704700EBED
:10019000C1018068B0F5004F2CBF41F8223021F832
:1001A00012307047012208B5FFF7E6FF400808BD8E
:1001B000836800EBC101B3F5004F08D34B681AB157
:1001C00043F001034B60704723F00103FAE74B88CB
:1001D0001AB143F001034B80704723F00103FAE7A3
:1001E00053000122FFF7D3BF80680131B0F5004F03
:1001F0002CBF02200120081AB0FA80F0C0F11F00C5
:1002000070472DE9F04104460D46FFF7CBFFA36888
:100210000146B3F5004F01D3012835D02046FFF742
:10022000E3FF04EB800216699EB9012303FA00F094
:10023000E36829460343E360204615612B4602220A
:10024000FFF7A5FF032229462046BDE8F041FFF74E
:100250009EBF022231462046FFF78EFF0746034627
:10026000022229462046FFF792FF33460322294601
:100270002046FFF78CFF032239462B462046FFF726
:1002800086FF02223146DFE7BDE8F081B2F5802F1C
:10029000F8B52CBF082504250023551B0022CC1DD2
:1002A00024F007040460C4E9002300230D4425F072
:1002B00007052D1BED0829462046A560E360FFF7E2
:1002C00093FF8600411C18461B36F60804F1100205
:1002D0008B4229DB324620460021FFF781FFAF1B0E
:1002E000204601220021FFF763FF3A463146FFF71F
:1002F00077FF3346314620460022FFF748FF294664
:1003000020460022FFF76CFF3B462946204600228C
:10031000FFF73DFF294620460122FFF749FF3146FE
:10032000BDE8F840FFF76DBF42F8040B0133CFE79B
:100330002DE9F74F9946D37814466F2BA3F141026C
:1003400006460F4601922DD028D8582B14BF0A25F7
:100350001025AA464FF0000BDDF8308052465B4670
:1003600030463946FBF7F6FF092AD3B21FD830339F
:100370005F45DBB208BF564508F8013D01D3C845CB
:1003800012D823789B0605D5082D16D1A37843F003
:100390000803A370404603B0BDE8F08F03F0F703F5
:1003A000702BD3E70825D4E706460F46D6E7019A17
:1003B000192A94BF37335733DAE7102DEAD1A378DF
:1003C00043F01003E5E72DE9F0410746884615465E
:1003D0001E461446B442A4EB050002D33EB923786E
:1003E0002BB1414614F8010BB8470028F2DABDE8FA
:1003F000F0817047FEF7D4B9CBB20C21C26803FB81
:100400000121886F00F0070070474FF02003EFF3E1
:10041000118283F31188BFF36F8F036813F0C00359
:1004200001D08B4207D101230360002082F31188A1
:10043000BFF36F8F70474FF0FF30F7E710B54FF005
:100440002003EFF3118283F31188BFF36F8F0368EA
:1004500003F00704012C06D10160002082F311880B
:10046000BFF36F8F10BD03F0C0038B4214BF4FF07A
:10047000FF306FF04400F1E74FF02003EFF31182FB
:1004800083F31188BFF36F8F036803F0C00343F059
:100490000203036082F31188BFF36F8F704710B4BB
:1004A0001C24C068CBB203FB0400002110BC104721
:1004B0000320FEF707BA0220FEF704BA0020FEF779
:1004C00001BA0320FEF752BA0220FEF74FBA00200D
:1004D000FEF74CBA1046FFF799B938B50C23CCB2E9
:1004E00063430546C068783380211844FFF78DFFC9
:1004F000002805DB696801EBC404636898470020A5
:1005000038BD2DE9F8430C27CDB26F43C4680646C9
:1005100007F178008021204490469946FFF78EFF2E
:10052000002807DB3C44C4E91C89736853F8353064
:1005300098470020BDE8F883704770477047002057
:10054000FCF7BABD0021012000F004B8836E83F3EC
:100550000B88704700F0C0B90146006800F0BCB9D4
:1005600008B5FDF735FABDE80840FDF785BB7FB556
:100570000A898E7A0B684D6802F01F0242EA461221
:1005800000938DF8082023F01F036A1E134423F004
:100590001F030728039304D86946FDF70DFC04B038
:1005A00070BD6FF01500FAE740E800F313F4803FE8
:1005B000D8B208BF6FF015007047034600201A5CE0
:1005C00002B970470130FAE7034600201A5C0AB10D
:1005D000884200D170470130F8E7431E013913F813
:1005E000012F11F8010F824201D1002AF7D1101A10
:1005F0007047F0B581EA0004A50703460BD0013B24
:100600000A4491421BD1F0BD002AFCD011F8014BE5
:10061000013A03F8014B9C07F6D122F003041D1F99
:1006200096080F19B94205D16FF00305234405FB65
:100630000622E4E751F804CB45F804CFF2E711F8BD
:10064000014B03F8014FDCE7034670B5C9B29C07C4
:1006500011D141EA012422F0030644EA04451E4474
:100660009408B3420DD16FF0030505FB04221A4430
:10067000934209D170BD002AFCD003F8011B013A56
:10068000E5E743F8045BECE703F8011BF0E74FF004
:10069000FF30704770B50E460168154689B10C6889
:1006A000002C38BF00248A682A4002D030464B68AC
:1006B000984734B123682146002B38BF00231C46DD
:1006C000F1E770BD436800205B681B690B607047F1
:1006D00043685B68586842400A4042405A600020C4
:1006E0007047436800205B6899607047436800204A
:1006F0005B68D9607047436800205A6853684B4074
:1007000053607047C36830B5586858B100248142BF
:1007100013D108685CB99C685860A14200D1986008
:100720000020086072B9002030BD2846EFE7206045
:100730009868814208BF9C60F2E705680446002D76
:10074000F3D13AB15A680A60986859600028EAD132
:100750009960E9E76FF01500E6E72DE9F041012621
:100760000027C368D0F80480DC68D3E905210A4378
:1007700024EA0204D8F804201B6915695D4024EAC4
:10078000050514B92846BDE8F08134420AD098F82E
:10079000083007F01F00002140EA4310FDF7D8FCA5
:1007A00024EA060401377600EBE72DE9F041012643
:1007B0000025C768D0F80480FC68D7E905321343E8
:1007C00024EA03040CB9BDE8F081264210D039694F
:1007D00098F80830E94001F00101C1F1030105F08A
:1007E0001F00C9B240EA4310FDF7B2FC24EA060438
:1007F00001357600E6E743681B68D3F80423D20589
:1008000018D5D3F82021AAB14FF02001EFF31182BF
:1008100081F31188BFF36F8FD3F8201131B100211C
:10082000C3F82011D3F820110121D96082F3118877
:10083000BFF36F8F70470B46C268D2E9010183E8AE
:1008400003000020704743681B68D3F88004C3F896
:100850008004704742681368D3F8580138B9927918
:1008600032B9D3F82001003818BF012070470120A9
:1008700070474368C2681B68D3F8100148B1002074
:10088000527C0A70C3F81001D3F8102101221A60BB
:1008900070474FF0FF307047002008B5FDF7FAF9B8
:1008A00008B5FCF7DBFEFCF79FFFBDE80840FFF74B
:1008B00033BA004700F001B908B50520FDF710F87C
:1008C00010B90520FCF7FCFF4FF050230122C3F8BC
:1008D0001425C3F8802508BDF8B505460E464FF02F
:1008E0002003EFF3118783F31188BFF36F8FFEF7B7
:1008F00087FF314604462846FFF7CEFF87F311886D
:10090000BFF36F8F2046BDE8F840FDF717BAFFF739
:1009100014BE30B50024846141EA020414F00304DB
:10092000C0E9023201610CD14461A34203D1C0E9A4
:100930000000002030BD456901340D604161114463
:10094000F3E76FF01500F5E703460020C3E9003335
:10095000C3E902007047034620B9EFF305820AB9E4
:10096000FCF758BF83F31188BFF36F8F70474FF0C8
:100970002003EFF3118083F31188BFF36F8FFFF72C
:10098000EABF014608B58068FEF70AFC4B7B23F0FE
:1009900002034B7300238B6008BD0346006883424B
:1009A00003D0002838BF002070470020704710B5E2
:1009B0004FF02003EFF3118483F31188BFF36F8F9F
:1009C000FEF748FC84F31188BFF36F8F10BD70B53C
:1009D00004464FF02003EFF3118683F31188BFF331
:1009E0006F8F50F8103CA0F1180513B12846FFF79F
:1009F000C8FF14F80B3C284623F0140304F80B3C02
:100A0000FEF728FC86F31188BFF36F8F70BD38B5F1
:100A100004460D46FEF7A6FD637B43F002036373B5
:100A2000C5B12B68A5609D4208BF0023002B38BFCD
:100A3000002383B194F90E1093F90E20914204DB48
:100A40006A689A4207D01B68F3E75A68C4E9003223
:100A500014605C6038BD6B68256063606B681C6007
:100A60006C60F7E738B54FF02003EFF3118283F3A2
:100A70001188BFF36F8FFFF790FF044682F3118850
:100A8000BFF36F8F88B14FF02003EFF3118583F32D
:100A90001188BFF36F8FFFF774FF85F31188BFF3E1
:100AA0006F8F04F1180000F00CF8204638BDEFF30A
:100AB0000580003818BF0120704708B1FCF7EABA7A
:100AC000704710B54FF02002EFF3118482F31188C4
:100AD000BFF36F8F03683BB1FEF7B4FF002084F3D0
:100AE0001188BFF36F8F10BD6FF01500F7E710B5D9
:100AF0004FF02003EFF3118483F31188BFF36F8F5E
:100B0000FEF7BAFF84F31188BFF36F8F10BD70B585
:100B100004460D464FF02003EFF3118683F311884E
:100B2000BFF36F8FFEF7A8FF012805DDA04203DDAC
:100B300029462046FCF746FD86F31188BFF36F8FE8
:100B400070BD08B5FFF7BCF808BD10B400F10C0487
:100B5000C0E9034410BCFFF799BB704728B8FF7F7A
:100B60000100000049D000000000000059EE000024
:100B700000000000F5FC00000000000049DF00005C
:100B800000000000DDD10000A800002069E60000A0
:100B9000B8000020E9D000000000000071D500007E
:100BA000C800002061E00000E800002061E00000D3
:100BB000D8000020A1080100F8000020E5CF0000C7
:100BC00000000000000000004505010000000000DA
:100BD000450501000000000045050100000000007F
:100BE00045050100000000004505010049EA00003C
:100BF000B3080100000000004505010000000000EE
:100C000045050100B8000020F707010000000000C2
:100C1000450501000000000045050100000000003E
:100C2000450501000000000045050100000000002E
:100C300029E300000000000045050100000000005D
:100C4000450501000000000045050100000000000E
:100C500045050100000000004505010000000000FE
:100C600045050100000000004505010000000000EE
:100C700021D5000000000000450501000000000033
:100C800045050100000000004505010000000000CE
:100C900045050100000000004505010000000000BE
:100CA00045050100000000004505010000000000AE
:100CB000450501000000000045050100000000009E
:100CC000450501000000000045050100000000008E
:100CD000450501000000000045050100000000007E
:100CE000450501000000000045050100000000006E
:100CF000450501000000000045050100000000005E
:100D0000450501000000000045050100000000004D
:100D1000450501000000000045050100000000003D
:100D2000450501000000000045050100000000002D
:100D3000450501000000000045050100000000001D
:100D4000450501000000000045050100000000000D
:100D500045050100000000004505010000000000FD
:100D600045050100000000004505010000000000ED
:100D700045050100000000004505010000000000DD
:100D800045050100000000004505010000000000CD
:100D900045050100000000004505010000000000BD
:100DA00045050100000000004505010000000000AD
:100DB000450501000000000045050100000000009D
:100DC000450501000000000045050100000000008D
:100DD000450501000000000045050100000000007D
:100DE000450501000000000045050100FFFFFFFF71
:100DF0000338FDD87047000031D30000DB04010048
:100E00000305010000000000F9030100A9D2000061
:100E10000DD30000BD040100CF040100B7040100A0
:100E2000C9040100B1040100C304010085D1000020
:100E30003DD1000000000000000000003F0501005F
:100E400011D70000C9D6000081D7000069D6000084
:100E50001C000020040000201400002000000000FE
:100E60000C0000200000002000000000060001002F
:100E700002000000780E0100000000005B1001007D
:100E800006000000E0FF0F000000002063100100DA
:100E900021000000E0DF072091E00000C50601000E
:100EA000D1060100E3060100ED060100F70601008E
:100EB00081E100000507010000000000FFFFFFFFC7
:100EC0000025845000000000FFFF0000002884502F
:100ED000010000007308010065E5000047080100FB
:100EE000E5E3000037080100008000500600010023
:100EF000640B01009C0B0100A40B0100C40B01005A
:100F0000C40B0100F5FFFFFFFF8FFFFFFF8FFFFF07
:100F1000FE8FFFFFFE8FFFFFFD8FFFFFFC8FFFFFA8
:100F2000FC8FFFFFFB8FFFFF6D757465785F667246
:100F300065652063616C6C65642077697468204E18
:100F4000554C4C20706172616D65746572000000D3
:100F500043616E277420696E697469616C697A6592
:100F6000206D757465782C20776173204E554C4C3C
:100F70000D0A0000436F756C64206E6F74206C6FF7
:100F8000636B20706F7765722073617665206D7575
:100F9000746578006E726635333430646B5F6E72E0
:100FA00066353334305F6370756170700048656C0E
:100FB0006C6F20576F726C64212025730A00286EB5
:100FC000696C2900010000004661696C6564207449
:100FD0006F207265626F6F743A207370696E6E690C
:100FE0006E6720656E646C6573736C792E2E2E0AA5
:100FF00000554152545F3000434C4F434B007379CE
:10100000735F636C6F636B006D757465785F696E99
:1010100069742063616C6C65642077697468204E24
:10102000554C4C20706172616D6574657200436F40
:10103000756C64206E6F7420616C6C6F6361746595
:10104000206D75746578206265666F726520696EC3
:10105000697469616C697A696E6700464C415348EE
:101060005F30005352414D5F30004750494F5F3170
:10107000004750494F5F300048575F43433358584B
:101080005F3000010000006D61696E0076322E3421
:101090002E39392D6E6373322D31002A2A2A2042CF
:1010A0006F6F74696E67205A6570687972204F534C
:1010B000206275696C64202573202573202A2A2AF2
:1010C0000A000000F1FF00000C01002001000000F8
:1010D0002001002001000000340100200100000078
:1010E00048010020010000008F0601000000000000
:1010F00000C2010000010300000000000000000029
:101100000090D003400000204000002000000000BC
:1011100051FD0000500900200100000009FE000000
:10112000E5FD000029FE0000C5FD00008C00002048
:101130005000002084000020000000007C000020FF
:10114000540900200100000058090020010000009F
:101150005C090020010000006C00002078000020E5
:1011600070000020680000209C000020F80F0100A3
:101170000C0E0100F80D01007C020020F10F0100AF
:10118000E80E0100D40E010028000020FE0F01002F
:1011900000000000000000000000000071100100CD
:1011A000BC0E0100980E0100640800206A100100C6
:1011B000C80E0100980E0100800800207810010080
:1011C000000000000000000000000000000000001F
:1011D0000C0100200C0100200000000000000000B5
:1011E0000F0000002001002020010020000000006E
:1011F000000000000F000000340100203401002036
:1012000000000000000000000F0000004801002066
:101210004801002000000000000000000F00000056
:1012200007695001100020006E9AB9A5FA542BD618
:101230002F7536C6E74052BFD02039A0064D912801
:101240009161A2A578B9FA7801002000FC5701DC71
:101250006135E1323847BDC40F04D2E5BEE5833BBA
:1012600023C29F93593D00018CFA999420000001FC
:101270000B85987DF8BE9F8C9F15FA837A2A425C75
:10128000C47DF4D44EDF69D17191FADC611ADD6E50
:101290005003E2043129A116B5D78ED1B6A2216937
:1012A000FB5658C62FBB80FD6FB18E78A589A7214C
:1012B000641E0E5E3C43CF4953A8119F3942EF1D77
:1012C0009C2B82779B9F14CE1462D49C862C853DE8
:1012D000B4E25DDB0F9D6AC651D662F02B84AC99F7
:1012E000E73D3871F91EDF4DAB216E41E0A52211BB
:1012F0001B9984B9B26E9BD83702FD99F270E63F14
:10130000EA180377E436246B55D18B780415C89519
:10131000D984F97947F2A57C24CFC89DC8B4A241ED
:101320005CD9AC551225B7AD3853BD6A8F0080CD5E
:10133000AF15C1B85BA1855EAEEE57D87E22D9024B
:10134000283F13060CBF972A237A032335E7B508F5
:101350009E2C25BFA9BE8FE3E726E92C1CE5BA55D4
:101360009E38FE5FD92B16D1877322EA07DA74C143
:020000040008F2
:1039D000FFFFFFFFFFFFFFFFFFFFFFFFFFFFFFFFF7
:1039E000FFFFFFFFFFFFFFFFFFFFFFFFFFFFFFFFE7
:1039F000FFFFFFFFFFFFFFFFFFFFFFFFFFFFFFFFD7
:103A0000FFFFFFFFFFFFFFFFFFFFFFFFFFFFFFFFC6
:103FF00077C295F360D2EF7F3552500F2CB679809F
:00000001FF
