:020000040000FA
:10000000B056002015240000376000004524000091
:10001000452400004524000045240000452400003C
:10002000000000000000000000000000212200008D
:100030004524000000000000C921000013600000FA
:10004000D5230000D5230000D5230000D5230000D0
:10005000D5230000D5230000D5230000D5230000C0
:10006000D5230000D5230000D5230000D5230000B0
:10007000D5230000D5230000D5230000D5230000A0
:10008000D5230000D5230000D5230000D523000090
:10009000D5230000D5230000D5230000D523000080
:1000A000D5230000D5230000D5230000D523000070
:1000B000D5230000D5230000D5230000D523000060
:1000C000D5230000D5230000D5230000D523000050
:1000D000D5230000D5230000D5230000D523000040
:1000E000D5230000D5230000D5230000D523000030
:1000F000D5230000D5230000D5230000D523000020
:10010000D5230000D5230000D5230000D52300000F
:10011000D5230000D5230000D5230000D5230000FF
:10012000D5230000D5230000D5230000D5230000EF
:10013000D5230000D5230000D5230000D5230000DF
:10014000D5230000D5230000D5230000D5230000CF
:10015000D523000053B94AB9002908BF00281CBFA5
:100160004FF0FF314FF0FF3000F070B9ADF1080CE7
:100170006DE904CE00F006F8DDF804E0DDE90223C5
:1001800004B070472DE9F047089E0D4604468A46A4
:10019000002B7FD18A42174641D9B2FA82F24AB186
:1001A000C2F1200105FA02F39740944020FA01F1D0
:1001B00041EA030A4FEA17484FEA144C1FFA87F93D
:1001C000BAFBF8FE08FB1EA30EFB09F14CEA034341
:1001D000994206D9FB1802D2994200F224810EF10D
:1001E000FF3E591AA3B2B1FBF8F008FB101100FB57
:1001F00009F943EA0144A14505D93C1902D2A145B8
:1002000000F20E810138A4EB090440EA0E400021FF
:100210001EB1D4400023C6E90043BDE8F08702B90F
:10022000FFDEB2FA82F2002A4FD1CB1B4FEA174E03
:100230001FFA87F80121250CB3FBFEFC0EFB1C30D6
:100240002B4608FB0CF945EA0045A9450AD97D195A
:100250002CBF01230023A94502D9002B00F0D9802F
:100260000CF1FF3CA5EB0905A3B2B5FBFEF00EFBBC
:10027000105508FB00F843EA0544A04505D93C1990
:1002800002D2A04500F2C9800138A4EB080440EA7C
:100290000C40BDE78B4208D9002E00F0B180002150
:1002A000C6E900050846BDE8F087B3FA83F10029E6
:1002B00046D1AB42C0F0A780824240F2A4800846FB
:1002C000002EAAD0C6E9004AA7E7C2F12000974055
:1002D00001FA02F34FEA174EC14024FA00F51FFA63
:1002E00087F894401D43B1FBFEF02B0C0EFB101160
:1002F00000FB08FC43EA01439C4509D9FB182CBFCD
:10030000012100219C4502D9002900F09580013887
:10031000A3EB0C03ADB2B3FBFEF10EFB113301FBFB
:1003200008FC45EA0345AC4505D97D1902D2AC4528
:1003300000F289800139A5EB0C0341EA00417AE71C
:10034000C1F120048B4002FA01F705FA01FCE240FA
:1003500020FA04F8E54000FA01FE134348EA0C02D3
:100360004FEA13484FEA124C1FFA83F9B5FBF8FA2B
:1003700008FB1A550AFB09F04CEA054C60450AD9FE
:1003800013EB0C0C2CBF01250025604501D9002D75
:1003900055D00AF1FF3AACEB000C92B2BCFBF8F07E
:1003A00008FB10CC00FB09F942EA0C4CE14505D9E9
:1003B00013EB0C0C01D2E1453BD8013840EA0A406E
:1003C000ACEB090CA0FB0789CC4545464A4602D355
:1003D00006D1C64504D20138B8EB070569EB030224
:1003E0002EB3BEEB05036CEB020C23FA01F20CFA00
:1003F00004F42CFA01F300211443C6E900430CE78E
:100400003146304609E7841A65EB030301209A461A
:1004100056E7ACF1020C3D4424E702383C4434E793
:1004200002383C44EFE6AEF1020E3B44D9E63146D9
:10043000F3E602389C44C1E702383B4468E7AAF17E
:10044000020A9C44A7E702393D4474E7704700BFA5
:100450007FB53A4B3A4A3B48C2F80036C2F80436F8
:10046000C2F80836C2F80C36C2F81036C2F8143694
:10047000C2F81836C2F81C3602F58052C2F80036AF
:100480004921C2F80436C2F80836C2F80C36C2F860
:100490001036C2F81436C2F81836C2F81C3605F009
:1004A0007EFA00F07DF8284800F05EF828B9452172
:1004B000254A264805F073FAFEE701A800F0DAFCA9
:1004C000234B1B68834204D04521224805F067FA7C
:1004D000FEE74921039A204805F061FA49211F48A7
:1004E00005F05DFA4FF44041002002F027FF20B1F3
:1004F00045211B4805F053FAFEE769469DF80800C0
:1005000000F03EF8009B039C1C44019B1D8966196A
:100510004FF02002EFF3118382F31188BFF36F8F46
:1005200005F079FD00F044FF635983F30888736890
:10053000984745210B4805F032FAFEE73546526EE2
:1005400000800150748800008D880000A0880000A1
:100550002C020020BF880000E28800001189000002
:10056000368900006989000010B5044C236813B96E
:1005700004F0A4F82060206810BD00BF280200200D
:10058000024608B538B105480023452105F007FAB1
:100590006FF0150008BD0860FCE700BF8C89000003
:1005A0004FF4C051014803F089BB00BF88110020FF
:1005B0002DE9F04FDFF8F891F9B038A81746DDE9DA
:1005C00084481D46DDF808B2D9F8006007F045FC04
:1005D000002138A803F082FCCDF80C903CB1B8F1B2
:1005E000000F04DD4246214638A807F03AFC4FF0E0
:1005F00000097B89B7F808809844FB689844C8458F
:100600004BD80DA938A807F069FC869B23B120229E
:1006100018460DA905F03BFD00232A4600933946F4
:100620004FF6FF7307A804F0FEFE0446002840F0D2
:10063000B58080464FF0FF37DFF878910DF1160353
:1006400005AA06A907A804F03AFF041EC0F2A68076
:1006500040F09780BDF816A0BAF1100F34D1BDF864
:100660001480B8F1200F40F0978043462846069941
:1006700038AA05F0AEFB0446002840F08F804246C1
:1006800038A90DA804F093FF0446474B1B6883422A
:1006900040F084804FF00108D0E7839AA8EB09036B
:1006A0009A4228BF1A4649461346924628465A4659
:1006B00005F08FFB0446002870D15246594638A8F1
:1006C00007F0CFFBD1449AE7BAF1010F36D1BDF85C
:1006D0001430202B60D82846069938AA05F079FBFB
:1006E000044600285AD19DF814A0BAF1200F03D96E
:1006F0004FF0FF342746A1E7D9F800302B4F029383
:10070000029B9C42F4DA1DA807F0A7FB00211DA85C
:1007100003F0E4FB7B681DA81A6857F8081B07F074
:10072000A0FB15A91DA807F0D9FB524638A915A8AA
:1007300005F09DFC0028DDD00134E1E7BAF1200F7F
:100740007FF47CAF002F19DBD9F80030BB4215DDF8
:10075000BDF81430B3F5807F1ED12846069938AA1B
:1007600005F037FB0446C8B9FFB25146BDF8143056
:10077000009738AA0DA800F01FF806464FF0FF3783
:100780005CE7B8F1000F0DD0074B1B68B34201D0F6
:10079000039B1E68344601E04FF0FF34204679B0D9
:1007A000BDE8F08F0124F9E72C020020CC84000082
:1007B00000000020C88400002DE9F04F914600227F
:1007C000ADF54B7D98466B4B07468A4627A81146E8
:1007D0009DF850631D6807F0FCFA674B8AAA53F82E
:1007E000364003EBC6035B680294196802A80C4408
:1007F0003023214605F0DEFF68BB029B8A9A134432
:100800009C4228D1214629AA02A805F0E7FF10BB87
:100810000DF1B00B5A46214602A805F0DFFF06464F
:10082000C8B929A806F0C5FB029B28909C4212D1AA
:1008300033463246CDE9006B29A927A807F085FA8F
:1008400048B927A803F0E8FA28B929A806F0B1FBAF
:10085000804528900AD027A807F0C6FA27A807F0F5
:10086000C3FA28460DF54B7DBDE8F08FB8F5807FC3
:1008700002D04FF0FF35F1E7BAF1200FF9D1494628
:100880008AAA27A803F0ECFA04460028F1D19DF8C3
:100890002733BC2BEDD10DF5A478DF264546039018
:1008A0000CA807F0DAFA00210CA803F017FB2022AD
:1008B0000DF207310CA807F0D4FA042203A90CA802
:1008C00007F0CFFA04A90CA807F008FB1F2ED4BF2D
:1008D000B1464FF020099DF80F30404601334A469B
:1008E00004A9A6EB09068DF80F3005F0D0FB002E09
:1008F000C844D5DC28462A46DF238AAE117816F88C
:1009000001CB013B81EA0C0102F8011BF6D12B78E7
:1009100003F07F032B7010F8016B002EA9D1013476
:10092000BE2CF8D195F8BE30012BA2D10CA807F04F
:1009300094FA31460CA803F0D1FA08220F490CA80A
:1009400007F08FFA394620220CA807F08AFA2022F5
:100950000DF207210CA807F084FA04A90CA807F0EF
:10096000BDFA20220DF2073104A804F020FE05464E
:1009700081E700BF00000020CC840000B2890000A5
:100980002DE9F041022386B00D466F460026DFF8C0
:100990006C80ADF8003017F8010B01A901F02EF8BA
:1009A0000446D8B901981023816802AA103905F0CD
:1009B00010FA044628B1019805F00AFA0EE0012663
:1009C000E9E71022414602A805F051FB50B1019819
:1009D00005F0FEF9002EF2D04FF0FF34204606B0AD
:1009E000BDE8F081019805F019FE0423A0F108018B
:1009F0002A46019805F0EDF90446DCE7AC860000D4
:100A00002DE9F041384B88B0064600200D461C68A1
:100A100004F000FD06A9C0B200F0F0FF002857D195
:100A2000294604F0F7FC2C2407A9C0B204FB056496
:100A300000F0E4FF002836D04FF02C0808FB05F842
:100A400006EB0807396911F0100137D14FF48073B4
:100A50000193264B224600930846CDE90311069BDD
:100A60000291FFF7A5FD0446214B56F80820069891
:100A70009A420CD13A89FB68D1438B4207D8134480
:100A80008268934203D21B4B1B68A3421DD045B31F
:100A90008268002105F0E3F9174A4521174804F060
:100AA0007EFF012411E0079805F008FA0746079831
:100AB00005F08EF9631EE21C93420DD1002DF0D09B
:100AC0003046069904F076FE2C46069805F080F92B
:100AD000204608B0BDE8F08113F8011FB942EBD001
:100AE000AAE7074AD9E700BF00000020882D0020B0
:100AF0003DB8F3962C020020BA890000CC89000092
:100B0000C489000073B50D46002104462846CDE98E
:100B1000001104F00EFE30B3164E2268B24203D12B
:100B2000204601AA04F07DFDE36AB34204D16A467F
:100B30000121204604F075FDDDE90032934288BFB3
:100B40000193019BAB60019A2946204600F034FBDB
:100B5000094B1A68002A03DD5721084804F01FFFDB
:100B6000002002B070BD05F10801FFF709FFAB6876
:100B70000193E8E73DB8F396900A0020F48900005D
:100B80002DE9F84F884691469A460026DFF894B042
:100B9000224D234C0B9B9E4201D300200FE00B9B68
:100BA00040469F1BB7F5806F28BF4FF480671D4AF2
:100BB0003B4606EB0A0105F00CF910B10120BDE837
:100BC000F88F0A993B465A464846711805F01EF9B7
:100BD0000028F3D1144BC5F800463E44C5F804463E
:100BE000C5F80846C5F80C46C5F81046C5F81446C1
:100BF000C5F81846C5F81C46C3F80046C3F80446B5
:100C0000C3F80846C3F80C46C3F81046C3F81446A8
:100C1000C3F81846C3F81C46BCE700BF008001506B
:100C20003546526E88290020009001502DE9F0438E
:100C3000884B0446602285B00F4600211E6805F0EF
:100C400051FA0021844B08466362844B236504F00B
:100C5000E1FB04F12001C0B200F0D0FE0121002030
:100C600004F0D8FB04F14C01C0B200F0C7FE054609
:100C7000204604F036FD024630B1802257217848E4
:100C800004F08DFE01238DE00146204604F011FDA5
:100C9000804618B1002257217248F1E7204600F043
:100CA000A3F90028EED0684604F03AFD69462046D4
:100CB00004F0D4FD18B1424657216B48E0E768467E
:100CC00004F037FD80F001016A462046C9B204F005
:100CD000F0FC02460028DDD1684604F02AFD80467B
:100CE00060BB69462046FFF70DFF9DF8073084F88A
:100CF0005830033B012B06D8404604F0FCFD10B1F0
:100D0000FF2384F858309DF80730023B022B0BD8A4
:100D1000002004F0DEFD38B1FF2384F8583045216F
:100D2000524804F03CFEFEE794F85830FF2BF6D012
:100D30006A460021204604F0BCFCA3E79DF807901A
:100D4000B9F1010F23D1104602F07EFB831E022B66
:100D500080460DD849462046FFF752FE444B1B689B
:100D6000984205D001280CBF4FF001084FF005084C
:100D700084F8588094F85830042B8DF8073014D834
:100D8000012B18D82FD0FF2384F858302BE00121F5
:100D90002046FFF735FE364B1B68984214BF0523EB
:100DA0009DF8073084F85830E4E7052BEBD100209C
:100DB00004F0A1FD12E069462046FFF7A3FE94F877
:100DC00058300546DA1E012A0BD8002004F093FDA6
:100DD00005460028D7D1002004F07BFD054610B160
:100DE000D1E7022BF7D094F85830FF2B04D14521DE
:100DF0001E4804F0D4FDFEE7012B06D06A46002110
:100E0000204604F056FC0546B8B900212046FFF7FD
:100E1000F7FD0646DFF85880D8F8003083420CD141
:100E200010220021684605F05DF9236AD8F80060B9
:100E30005A783A715B683C60BB60E06C04F0C8FFB4
:100E4000206A04F0C5FF002D14BF2846304605B0C7
:100E5000BDE8F083000000209002002090060020F2
:100E6000238A0000658A0000918A0000BB8A000086
:100E70002C02002008B501460148FFF7D7FE08BD47
:100E80003002002073B516461C4633B3436A5D68D2
:100E90006379012B15D101BB1F4B22681B689A4255
:100EA00098BF0025002004F0B5FA01A9C0B200F0F7
:100EB000A5FDF0B10125019804F08AFF284602B093
:100EC00070BD022B09D12368012B08D9124A126880
:100ED000934202D8B1FA81F149090025E2E7FCD139
:100EE0000029DFD00129F8D12179023918BF012169
:100EF000F3E7294620233246019804F06AFF0546AD
:100F00000028D7D1002CD6D0356804482D1A18BF38
:100F10004FF0FF35CFE700BF040000203DB8F39647
:100F20002DE9F04F07460C4685B0014600201646D5
:100F300004F044FB051E51DB3846E46D04F04BFB26
:100F40005FFA84F94FF0000A4FF0010B4FF0FF34C5
:100F500005F1FF3809FB08089DB9BAF1010F03DD5F
:100F60004521204804F01BFD631C06D07F2C2ADCA1
:100F700040F2011301343460B380284605B0BDE867
:100F8000F08F6B1E00934146012338460DF10F028E
:100F900004F01FFF031E019322DB012238460DF1EE
:100FA0000F0105F04CFB019B40B19B4501D00AF1BC
:100FB000010A9B46009DA8EB0908CDE7B4F1FF3F6D
:100FC00008BF2C46F5E70223803C7371631004F0E0
:100FD00001040133013433603471CEE70725CCE7D7
:100FE0000125CAE7C78A000038B5826A446DA2426B
:100FF00008D0631C934205D05721134804F0CFFC5E
:10100000002038BD802A1CD957211048F6E7416AD4
:10101000056D01EBC30105EBC30549686D688D42A1
:1010200002D057210A48E9E70133A342EFD19A429F
:1010300005D9426A02EBC3035B689942F1D10120F2
:10104000DFE700231946F0E7EA8A0000228B000060
:10105000518B000000B589B0022004A905F022FBE5
:101060009DF81020012A41D0254B2649032A18BF9C
:101070000B469DF81320492102929DF81220224828
:1010800001929DF811200092204A04F088FC05206E
:1010900006A905F007FB9DF81820012A28D0184B57
:1010A0001849032A18BF0B469DF81B2049210292BC
:1010B0009DF81A20144801929DF819200092144AB4
:1010C00004F06DFC9DF81030012B13D19DF8123007
:1010D000032B0FD19DF81830012B0BD00D4849215F
:1010E00004F05DFC022009B05DF804FB0A4BC0E788
:1010F000094BD9E70948492104F051FC0020F2E7E7
:10110000828B0000888B00009A8B00008C8B000083
:10111000DB8B0000EB8B00007D8B00000A8C000055
:1011200070B5064618464B6814461D4A03F0FF2367
:1011300093420D4686B02ED10B68012B2BD104A90A
:1011400005F0B0FA9DF81020012A26D0154B16495B
:10115000032A18BF0B469DF81320492102929DF8DF
:101160001220124801929DF811200092104A04F0BA
:1011700016FC9DF81030032B0DD12146304604F0AB
:1011800019FB204605F07EFA2046A96804F03AFAD9
:10119000204602F0FBF806B070BD064BDBE700BF4F
:1011A00000010004828B0000888B00009A8B0000F5
:1011B000DB8B00007D8B0000436A2DE9F04F0C466D
:1011C0005E680546012100238BB0334493420846F4
:1011D00001F10101F9D3734F3860204604F0A9FAF8
:1011E0000397B8B1E86D04F0E4F90022AB6A013B63
:1011F0003244904201D9013BFAE7039A12689A42BD
:1012000008D35721684804F0CAFB0123E3710BB0EF
:10121000BDE8F08F08A9022000F0F0FB09A9052025
:1012200000F0ECFB052321462846099AFFF778FFDA
:101230006379012B08D1039BDFF870B11F68039B12
:101240001B68A7B90123236002230127DFF85C8113
:1012500063710693039BDDF820901B689F424AD977
:10126000484604F0B5FD099804F0B2FDCFE72268C6
:1012700001339B1A9F423CD86B6A012A196853F8C4
:10128000370003EBC70353F8083CDDF82080A0EBE0
:101290000109A3EB010A12D1E268099B022A0AD0D4
:1012A00041462846049304F085FA224641462846E2
:1012B00004F0B5FA049B1946284604F07BFA32463E
:1012C0004946404604F074FA534642464146284691
:1012D000CDE90096FFF754FC2146284604F036FA83
:1012E00023680133236020B1DBF800300133CBF8F1
:1012F0000030013FA3E723689F4250D36A6AFB0096
:1013000052F83710083B05911168DDF824A00491CC
:10131000296DC8580968A0EB010B217901293CD13E
:10132000D158049B3246C91A4846079104F040FA46
:1013300007995B464A460091284651460196FFF7B9
:101340001FFC2146284604F001FA069B237120B1B8
:10135000D8F800300133C8F80030324659465046BC
:1013600004F026FADDE9042349469B1A2846524632
:10137000CDE900B6FFF704FC2146284604F0E6F963
:101380002368013323604FF00103237138B1D8F88B
:1013900000300133C8F8003001E00229DDD0013708
:1013A00058E700BF04000020218C0000900A0020B4
:1013B0000122124B12491A604FF0FF33C1F8483333
:1013C000C1F8083301F580514A60043100210D4A0B
:1013D000C2F84833C2F80833A2F55042C2F80015EB
:1013E000C2F8083302F58052C2F80015C2F808337B
:1013F0004FF05022C2F80833704700BF044001503C
:1014000000400150005001500B6801330B60014B4C
:101410001B68184708000020014B1860704700BF88
:101420000800002007B50B46002102460191034841
:1014300001A900F0EBF803B05DF804FB091400000B
:101440002DE9F84FB0F81890044619F008089346B3
:101450000DD001290CBF49F0100949F02009A0F86E
:1014600018908BF31188BFF36F8FBDE8F88F09F0E8
:101470000709022907D1204604F09EFA0028F0D07F
:101480000128238B50D16769218B002F15DA25683D
:1014900021F00701C4E9008841F001012183002601
:1014A000218B01F0070ACA4502D0A368002B5CD14A
:1014B0000DB9002E74D0002358E001F007035A1F25
:1014C000012A20D821F00701062B256889B2C4E93A
:1014D00000880CD1002D2B4638BF00232BB1628B26
:1014E0001B6801326283002BF8D141F002012046D3
:1014F000218304F061FA06460028D1D0238B43F003
:1015000020032383CBE7042B0CD121F0070189B200
:101510002046218304F050FA05460028BFD041F050
:10152000200121830025BAE7032809D1226923F08D
:101530000703166843F00603002523832F46AFE711
:10154000042806D1226923F00703566843F00403F8
:10155000F2E7052806D1226923F00703966843F0D5
:101560000503E9E700252E46E8E7012341F00801DD
:1015700021838BF31188BFF36F8F03BB002D33D111
:1015800016B120462049B0474FF02003EFF3118BEE
:1015900083F31188BFF36F8F238B23F0080323831A
:1015A000238BDA0628D5012123F010032383B4F816
:1015B000189009F0070900297FF45BAF51E7A16893
:1015C0000029DBD00B68002B38BF00239946524618
:1015D0003B462046D1F804B0D847B9F1000FCDD032
:1015E0004946D9F80030EEE729463B4652462046A8
:1015F0002D6804F0FDF9C1E713F020011EBF23F0B0
:10160000200302212383D2E71D5A00002DE9F04F69
:10161000002406468B469A464FF0FF3527468DB08C
:101620000B9402F1FF394FF000080AE0B8F1000F07
:101630000FD1252800F03A815946B0470B9A013264
:101640000B9219F8010F0028F0D10B980DB0BDE8EE
:10165000F08F7A280AD8622812D8302853D047D879
:10166000252800F01D812D2800F0278159462520CE
:10167000B0470B9A5946013299F800000B9210E1DD
:10168000A0F16302172AF1D801A353F822F000BF9A
:1016900091180000431700006D1600006D16000041
:1016A0006D16000025170000431700006D1600009E
:1016B0006D160000251700006D1600006D16000065
:1016C0006D160000CD1700006D1600006D160000AD
:1016D0006B1800006D160000431700006D16000027
:1016E0006D160000CD1700006D16000025170000D4
:1016F00039280DD95828B9D16C2C40F0AA80002384
:101700005AF8042B91E0002D02DA002F00F0D78068
:101710000A2225EAE57502FB0505002F08BF02270E
:10172000303D8EE7682803D1682C06D1482488E72D
:101730006C2802D16C2C00F0C480002C96D1044699
:101740007FE77A2C06D1D04658F8042BD31775289A
:1017500028D111E06C2CF6D04C2C06D10AF10703ED
:1017600023F00708F8E80223F1E77528DAF80020EB
:101770000AF1040815D10023F81E18BF0120012F1B
:101780000CBF30212021CDE901010A200DF12C0EE2
:10179000009059463046CDE9035E04F094FAC24603
:1017A00041E7D317002A73F10001E5DA59462D20ED
:1017B000CDE90623B047DDE906230B98524200F13C
:1017C00001000B9063EB4303013DD5E7702893D1F3
:1017D0005AF8048B3C4B3D4AB8F1000F18BF134632
:1017E00013F8010B594606930993B0470B98069BD3
:1017F00001300B9018780028F2D1B8F1000F11D108
:101800006A1F032F7FF40FAF9046B8F1000F7FF7E8
:101810000AAF59462020B0470B9A08F1FF38013231
:101820000B92F2E742460346023DF81E18BF012024
:10183000012F0CBF30212021CDE9010110200DF135
:101840002C0E009059463046CDE9035E04F03BFA79
:10185000E9E64C2C7FF453AF0AF1070323F00703AA
:101860009A465B685AF8082BDFE75AF8048B434620
:101870009C4613F8010B18B9ACEB0802AA1AC0E792
:1018800059460693B0470B98069B01300B90EFE743
:1018900059465AF8040BB0470B9B01330B93C2E631
:1018A0005946B0470B9A01320B92BCE64446474674
:1018B0004FF0FF354FF00108C3E60327C1E60127CB
:1018C000BFE64C24BDE600BF5E8D0000648D0000C5
:1018D00008B5104B1B68072B19D10F4B1B68023B37
:1018E000032B14D80D4AD35C8BB145210C4804F06E
:1018F00056F845210B4804F052F845210A4804F0F7
:101900004EF8404080F311884FF0040002DF0020C1
:1019100008BD00BF3001FF003401FF00F38D00005F
:10192000678D0000998D0000C58D0000094B0A49A4
:1019300000F01F024009012808BF0B4603EB820399
:10194000D3F8002222F0E04242F04052C3F80022D5
:10195000704700BF002584500028845070B54FF0B8
:101960002003EFF3118683F31188BFF36F8F0124F7
:101970000B4D0C4B0020C3F80045C5F8D046FFF7CF
:10198000D5FF2046FFF7D2FFC5F80447C5F8044944
:10199000C5F8004B86F31188BFF36F8F002070BD30
:1019A000004000500010005048B1054B1A68054B2C
:1019B000B2FBF3F2044B504343F001031847704766
:1019C0006000002040420F00C0840000094B30B589
:1019D0001D68094B02461C6800239D4201DC002063
:1019E00030BD1901615C04EB03109142F8D0013362
:1019F000F3E700BF488500000C000020084B10B53D
:101A00001B680C462BB1FFF7E1FF28B120600020D6
:101A100010BD6FF00C00FBE76FF00100F8E700BFAE
:101A20000C00002030B589B00C4615460190FFF738
:101A3000CDFFB8B14368226802938368C068CDE9DE
:101A400003350023CDE90623059304F0A1F960B125
:101A5000074901AA04F032FC079808B9059B2360E6
:101A600009B030BD6FF01500FAE76FF01200F7E72C
:101A7000955D0000044608B54FF02002EFF3118396
:101A800082F31188BFF36F8F04F0C5FA204600F08F
:101A9000A7FE034803F083FF00F030FCFCE700BF23
:101AA000FD8D00000A2838B50446064D03D10D21EE
:101AB000286804F00CFA2868E1B204F008FA20461D
:101AC00038BD00BF940A002010B5074802F0F6FDAB
:101AD000064C074B1860204601F004F82046FFF73B
:101AE0009BFC002010BD00BF268E0000A51A000040
:101AF000940A002070B504460C250D480E46231AA2
:101B00009A100C4B40215343DBB25D4305F178033F
:101B1000184404F0E8F9011E04DB074B2B445B6812
:101B20009847002120463346BDE87040184700BF63
:101B3000A80A0020B76DDBB6608500002DE9F041F2
:101B40000F4C104D031B9B105D43EBB20C255D4306
:101B5000074605F178000E462044402104F0DCF9E8
:101B6000011E08DB084B2C44C4E91C36074B5B59AB
:101B7000BDE8F041184738463346BDE8F041184704
:101B8000A80A0020B76DDBB6815F00006085000009
:101B90002DE9F843002201210646052000F06EFBE6
:101BA000052000F04DFB114801F05CFD104B984200
:101BB00019D104F09CFD00244FF01C080C27DFF81D
:101BC0003490F568494608FB045003F044FF0028B0
:101BD00007DB012307FB04551C44042CAB67F0D141
:101BE0000020BDE8F8836FF00400FAE72D1C000028
:101BF0000000AD0B9085000001460C2300224B43F2
:101C0000084870B5C4187833D4E91C5618442267C4
:101C100004F0A0F92DB132462B46BDE870400248D1
:101C2000184770BDA80A0020DC000020052811D844
:101C3000DFE800F0030E10100C0A074B986F10F04D
:101C4000070007D1FFF7D8BF0220FBE70320F9E721
:101C50000120F7E7704700BFA80A002008B54FF041
:101C60002003EFF3118183F31188BFF36F8F124AC2
:101C7000136843F0020013F0010310600CD04FF022
:101C80005022D2F80C34D2F80C2413F0010303D004
:101C90000A4804F05FF9012381F31188BFF36F8FC5
:101CA00023B1BDE808400020FFF7A6BF0120BDE832
:101CB000084001F0E7BC00BF480B0020200B0020CB
:101CC000074BD3E8EF2F22F00201C3E8E01F002802
:101CD000F7D1D30702D4012001F028BD704700BF1F
:101CE000480B00202DE9F843012206463949D1E886
:101CF000EF3FC1E8E02F0028F9D133B93649374822
:101D00004B60CB608A6003F0B9FE731E012B32D8A2
:101D1000012E07D14FF05023D3F81C3403F00303F6
:101D2000022B28D006F02DFA044618B92C4B1B784C
:101D3000002B47D14FF02003EFF3118583F3118877
:101D4000BFF36F8F0124274FDFF89C80DFF89C9052
:101D50004FF05022D2F81834D2F81824D2030CD500
:101D600003F00303022B01D0012E06D124B385F327
:101D70001188BFF36F8FBDE8F883C4B1284600F027
:101D8000CBFA4FF05022D2F81835DBB2012BDFD15D
:101D900039680029DCD00021396039680221C2F895
:101DA00018152022C8F88021C9F80030D0E700219A
:101DB000212003F047F8E4E74FF050230222C3F854
:101DC0000423D8E74FF0502302220546C3F8082326
:101DD000B9E700BF4C0B0020980A0020C40A00207D
:101DE000AA2E00200451005000E100E008500050ED
:101DF000044A1368C81A20F07F400344136003F0BC
:101E000043B900BF5C0B00202DE9F0474FF4803749
:101E10004FF00009860000F1500406F15026A4009E
:101E200006F58036A4B204F15024D6F84035DFF828
:101E30006C8021F07F4504F580348740D8F804A5F4
:101E4000A3EB0A0323F07F432AF07F42012BC6F85D
:101E5000402502D1132006F09AF90AF10202AB1ACA
:101E600023F07F43B3F5000F88BF1546C4F80090F8
:101E7000236825F07F43C8F84473C6F84035D8F886
:101E800004359A4506D0EB1A023B23F07F43B3F5A5
:101E9000000F01D8BDE8F0872B46CFE70050015076
:101EA000F8B5002427460F4E0F4B104A18461D6800
:101EB00004B1F8BDD2F80413C903FAD5316800297A
:101EC000F7D0346031684FF48031C2F848130124F0
:101ED000D2F8401525B100205A681F60A847E3E7F3
:101EE0000560E6E740510150500B002000500150C2
:101EF00038B500244FF480334FF400120D4D01210A
:101F0000C5F80845C5F804330B4B1520C3F88021EC
:101F1000224600F0B3F9152000F092F90123074A98
:101F200002201360064A2B601360FFF7DBFE204699
:101F300038BD00BF0050015000E100E008500150E2
:101F4000580B0020134BB0F1FF3F08BF1846013873
:101F500000281CDD9842A8BF18460F4BD3F8042573
:101F60000E4B1968521A12F4000F18BF002022F00D
:101F70007F4301330A4A03440A481060002050603E
:101F8000044A934294BFC9188918FFF73DBF002047
:101F9000E3E700BFFFFF7F00005001505C0B002013
:101FA000500B0020F11D00004FF02002EFF31183D1
:101FB00082F31188BFF36F8F064AD2F80405064AF0
:101FC0001268801A20F07F4083F31188BFF36F8F6F
:101FD000704700BF005001505C0B0020014803F027
:101FE00019B900BF9C85000008B508B34368042BED
:101FF00007D0082B13D0F3B1006802F01DFD0020BC
:102000000CE000220368D3E8EF1F012903D1C3E8E5
:10201000E02F0028F7D1094808BF104608BD036823
:1020200000201B78064A03F5807342F82300F5E789
:102030006FF4E040F2E70348F0E700BFE98FFFFFED
:1020400000000350EA8FFFFF10B5044618B90D4B8E
:102050000D485B689847616808290DD031F004038A
:102060000AD011F0020108D02146084802F042FCD3
:10207000002323600023636010BD1422206804F055
:1020800031F8F7E77C0000206C8E0000600B002028
:1020900010B5044618B9164B16485B689847636834
:1020A000042B23D0082B21D0CBB92368BBB94FF028
:1020B000FF324FF0FF3321460F4802F0E9FB08B929
:1020C00023681BB90A4B0D485B689847142200210E
:1020D000206804F007F8636843F002036360206837
:1020E00005F09BFF636843F00103636010BD00BF10
:1020F0007C0000206C8E0000600B0020928E00009F
:1021000008B540B34368042B0BD0082B16D003B39B
:1021100000684FF0FF324FF0FF3302F015FC58B16A
:1021200015E001220368D3E8EF1F002903D1C3E8BB
:10213000E02F0028F7D10AD1002008BD0368074A24
:102140001B7803F5807352F82330002BF4D0044839
:10215000F3E70448F1E76FF4E040EEE700000350D6
:10216000E98FFFFFEA8FFFFF08B5064940231422DD
:10217000054805F037FFBDE808400449044803F06E
:102180009BB800BF7C0B0020600B0020B4850000D2
:10219000A4850000094A0A49936809689867D967C5
:1021A00008494B6843F080534B60002383F3118848
:1021B000BFF36F8F9368D86F704700BF3C1100204A
:1021C000D087000000ED00E013498A684FF0380026
:1021D0001044EFF3098C80E8F01F202080F3118871
:1021E000BFF36F8F0D4F4FF000664A6A8A603E6002
:1021F000906F0023936780F3118802F1380090E814
:10220000F01F8CF3098802F1000004B503F00BFF06
:10221000BDE80440704700003C11002004ED00E0E0
:102220001EF0040F0CBFEFF30880EFF30980816903
:1022300011F8021C0229FFD001B503F0F8FE01BD20
:1022400043B2002B08DB012200F01F0002FA00F06D
:10225000024A5B0942F82300704700BF00E100E03A
:10226000054B420953F82220012300F01F0003FA16
:1022700000F01040704700BF00E100E043B2002BC7
:1022800001F10101ACBF03F16043064B4FEA41117C
:10229000C9B2ABBF03F5614300F00F0083F8001330
:1022A0001954704714ED00E080B51D4604460F46F2
:1022B000164600F0D5FA002383F30B880B4B31460A
:1022C0002A463846A3F52056202586F30B8883F34B
:1022D000098863B64FF0000383F31188BFF36F8F53
:1022E000A04785F31188BFF36F8FFEE7B05600203B
:1022F000014910220A60704710ED00E072B64040BC
:1023000080F31188BFF36F8FBFF34F8F30BF62B67A
:10231000BFF36F8F704700BF72B6494081F31188D9
:1023200020BF80F3118862B6704700BF37B50546FD
:102330000C46C9B18B6810480093D1E900234521B0
:1023400003F02DFB636945210093D4E903230B4877
:1023500003F025FB4521E269094803F020FB4521F4
:10236000A269084803F01BFB2146284603B0BDE8DC
:10237000304002F0CBB900BFBF8E0000F38E0000EA
:10238000278F00003B8F000030BFFFF7FDBF00BF6D
:102390000E4A08B50E4B22F07F029A60BFF34F8FB2
:1023A000BFF36F8FD3F8882022F47002C3F888201F
:1023B000EFF3148323F0040383F3148802F0F4F999
:1023C00002F078FD00F01EFA02F010FA00000000A2
:1023D00000ED00E001B572B60B4A106A00281EBF7E
:1023E0000021116205F0FCFD62B6EFF30580A0F15B
:1023F00010004FEAC0000549014409C99847BDE8EB
:1024000001400349084700003C11002050820000B1
:10241000DD27000003F0B7FC202080F31188084876
:102420004FF40061401880F30988EFF31480022113
:10243000084380F31488BFF36F8FFFF7A9FF0000F4
:10244000B0560020EFF30880EFF3098101B5724622
:1024500000F008F901BD00BF70B5224C06460D46DC
:102460002148452103F09BFAA26AD00603D54521F5
:102470001E4803F094FAA36A190703D545211C48A6
:1024800003F08DFA174CA36A9A0710D54521194815
:1024900003F085FA626BA36A1B0608D5452116482E
:1024A00003F07DFA1EB1A36A23F08003A3620D4CF2
:1024B000A26AD00703D54521104803F070FAA36A39
:1024C000990603D545210E4803F069FA0020054B13
:1024D0009A6AD20658BF9A6A9A6A42F0FF029A62D2
:1024E000287070BD00ED00E06E8F0000898F000045
:1024F000C18F0000D98F0000F68F000011900000FE
:102500003590000070B5234C06460D462248452103
:1025100003F045FAA26AD10403D545211F4803F010
:102520003EFAA36A1A0503D545211D4803F037FA80
:10253000184CA36A9B0510D51A48452103F02FFAC1
:10254000A26BA36A180408D54521174803F027FA9F
:102550001EB1A36A23F40043A3620E4CA36A59057B
:1025600003D54521114803F01AFAA36ADA050BD501
:1025700045210F4803F013FA0020064A936A43F4FA
:102580007F439362287070BDA36A9B04F4D54521F4
:102590000848EFE700ED00E069900000849000003B
:1025A000C18F00009A900000B8900000D290000007
:1025B000F29000003590000038B5214C45212148AB
:1025C00003F0EDF9A26A950103D545211E4803F0F9
:1025D000E6F9A36ADC0103D545211C4803F0DFF9C5
:1025E000174DAC6A14F4801404D04521184803F048
:1025F000D6F90224AB6A180303D54521154803F028
:10260000CEF90F4DAA6A510303D54521124803F0B4
:10261000C6F9AB6A9A0303D54521104803F0BFF908
:10262000074DAB6ADB0303D545210D4803F0B7F92D
:10263000AB6A20466FEA03436FEA1343AB6238BDCF
:1026400000ED00E00F9100002C910000449100008B
:102650006391000092910000B5910000DF910000AD
:10266000FE9100002DE9F0434A4B0F46D3F8049049
:1026700000258BB0C9F3080885F31188BFF36F8F6D
:1026800002F07F43B3F17F4F07D102F00C03082B18
:1026900005D14521404803F082F92F4603E0120797
:1026A00001D4074601250022A8F1030614468DF83F
:1026B0000720092E5BD8DFE806F0054F53335A5A3E
:1026C0005A5A5A574521354803F069F9314B8DF86C
:1026D0000740DC6A14F0020405D04521304803F0BD
:1026E0005EF900241FE0DB6A5B001CD545212D4804
:1026F00003F055F92C4B1B782BB101200DF107018C
:10270000FFF7AAFE0EE0294B1B782BB101200DF13B
:102710000701FFF7F7FE05E0254B1B889BB213B1BD
:10272000FFF74AFF04469DF8073093B92022394647
:1027300002A803F0ACFC099B35B3C3F3080222B92D
:102740006FEA53236FEA43230993204602A9FFF758
:10275000EDFD0BB0BDE8F08300200DF10701CFE7E0
:1027600000200DF10701D4E745211248B7E71249CF
:1027700019F4F87F114A124808BF0A46A8F110035D
:10278000452103F00CF9ACE723F4FF7323F00103B8
:10279000DAE700BF00ED00E05C9200008C920000E0
:1027A000A8920000CE92000028ED00E029ED00E0A4
:1027B0002AED00E0F29200002E9200004392000009
:1027C0002D930000044B5A6942F010025A615A6975
:1027D00042F480625A61704700ED00E0704700BF2C
:1027E000BFF34F8F0549064BCA6802F4E0621343FA
:1027F000CB60BFF34F8F00BFFDE700BF00ED00E0EF
:102800000400FA05002320210348C2180133452B98
:1028100082F80013F9D1704700E100E008B50E4BD3
:102820009B68834207D1EFF3058393B10B4A53684A
:1028300043F08053536002F0F9F94FF02003EFF3B7
:10284000118083F31188BFF36F8FBDE8084005F056
:10285000EBBB02F00FFB00BF3C11002000ED00E0DD
:102860000121024B024A034800F032B900E0072080
:1028700000000020C885000010B50B680C7A23F01A
:102880001F0204F01F031A43CB68640923F01F03DF
:10289000044943EA440343F001038860CA600B61C2
:1028A00010BD00BF90ED00E030B54B680C6885B0FE
:1028B0000A898D7A0094013B24F01F04234402F01E
:1028C0001F0242EA451223F01F03072804468DF831
:1028D0000820039309D902464521064803F05FF812
:1028E0006FF01504204605B030BD6946FFF7C4FF00
:1028F000F8E700BF499300002DE9F04F89461446E0
:1029000006464FF00008524D85B0C84523DA776877
:10291000002F42D01F2F17D9FB0615D1D6F800A0E3
:102920001AF01F0F10D1504603F08CFB834607EBC3
:102930000A00013803F086FB834510D06FF0150BB9
:102940005A464521434802E042464521424803F0A9
:1029500026F86FF01504204605B0BDE8F08F1BF196
:10296000160FEDD0631E5B45EADBC5F808B0E968D9
:10297000C5F808B02F6921F01F01D6E900321A44CA
:10298000994247F01F0702F1FF3A1CD1574508D181
:1029900031465FFA8BF0FFF787FF08F101080C362C
:1029A000B3E73146C5F808B0EB6822F01F0203F028
:1029B0001F031A43EA60E0B2FFF776FF10F1160F2B
:1029C000C7D0441CE9E7013B5745E0B223F01F03A1
:1029D000C5F808B006D12A69314602F01F02134338
:1029E0002B61E9E7296901F01F010B432B61314697
:1029F000FFF75AFF10F1160FABD0C5F808B0EA6820
:102A00009DF80830013F62F304038DF808302B690C
:102A10009DF808205B0863F347128DF80820D6E97B
:102A200000321344009323F01F033B44441CA3EBE8
:102A30000A0AE0B22AF01F030728039303D90246CB
:102A40004521064883E76946FFF716FFB9E700BF4F
:102A500090ED00E09C930000749300004993000007
:102A60000522034B5A60BFF34F8FBFF36F8F704740
:102A700090ED00E0BFF35F8F0022014B5A6070477A
:102A800090ED00E038B50E4C2568082D14D8FFF7FE
:102A9000F1FF00200B4B0C4A1A63854205D10B4B0A
:102AA0001D70FFF7DDFF002038BD616801EB0011EC
:102AB000FFF7E2FE0130F0E74FF0FF30F4E700BF30
:102AC000D485000090ED00E0AAFF4400882E00208D
:102AD00010B5034C2278FFF70FFF207010BD00BF28
:102AE000882E0020014B1860704700BF3000002086
:102AF00008B5094B1A786AB901210D201970052112
:102B0000FFF7BCFB0D20FFF79BFB4FF00042034B90
:102B1000C3F80423002008BD892E002000D00050F7
:102B20002A4BF0B544682A48134083423FD00DD861
:102B3000062B15D005D89BB1022B3AD06FF01500AB
:102B400034E0B3F5801FF9D1012309E02148834225
:102B500031D0B3F5A00F30D0B3F5800FEED1022302
:102B6000D0064CBF0326C2F3401682F48075970549
:102B7000C2F34020C5F3002506D512F4006F676844
:102B80001DD001228A40BA60277A134A134C01F003
:102B90001F01012F08BF144640EA4502002042EA07
:102BA000032343EA8603803144F82130F0BD072334
:102BB000D6E70423D4E70523D2E70323D0E7520561
:102BC00042BF01228A40FA60DEE700BF0600F00043
:102BD00006001000020040000028845000258450A8
:102BE00010B5094B094C00F01F024009012808BF2D
:102BF000234603EB8203D3F8002222F4403242EA58
:102C00000142C3F8002210BD0025845000288450E2
:102C1000F7B50E46416806F01F05097AB2F5A03FE8
:102C2000C76845EA411511D15F4CDFF888C16809D2
:102C3000012814BF2046604605F01F01803150F87E
:102C40002110C80707D56FF0220093E0B2F5005FAE
:102C5000F96800F091800121F868B1400143F96002
:102C600001217869B140B2F5A03F0CBF0843884309
:102C700078610020BA69B3F5C02F0CBF0A438A43BC
:102C8000BA613A69B3F5802F0CBF114322EA010102
:102C9000464A3961D2F80433DBB200F5A27152F82A
:102CA0002110C1F305218D426BD123FA00F1C90730
:102CB00067D5830003F1A04303F55043D3F8101503
:102CC00021F00101C3F8101501238340C2F8083335
:102CD000C0B200F00DFE28460021FFF781FFF86822
:102CE000F04010F0010045D07869F04010F0010488
:102CF0004ED0BB690DF10700F340DB0757BF3969C0
:102D0000032621FA06F606F001065CBFC6F10206AC
:102D1000F6B200F00FFE264B984236D100209DF807
:102D200007102D028B0003F1A04303F55043D3F8A5
:102D3000102505F47C5522F44F3222F44072C3F87A
:102D40001025D3F8102515438A0002F1A04202F5A0
:102D5000514245EA0646C3F8106510601268D3F880
:102D6000102542F00102C3F8102501230F4A8B40C1
:102D7000C2F8043303B0F0BD0120B04021EA0001E5
:102D80006DE70130082888D1A5E76FF01200F1E760
:102D900039692846F14001F00101C1F10301C9B2CE
:102DA000FFF71EFF2046E5E70025845000D00050C5
:102DB0000000AD0B00288450F7B50026CDE9006671
:102DC000264D2C684CB1264803F015FA0090254892
:102DD00003F011FA01902E602B6800220126944620
:102DE000214DD5F8043306FA02F119421BD09100A7
:102DF00001F1A04101F551410B68A3B102F5A273A5
:102E000055F8233002AFC3F3403007EB800050F891
:102E1000087CC3F3042306FA03F33B43C1F800C064
:102E200040F8083C0B680132082ADAD1009A1AB13E
:102E30000B490E4803F07CF9019A1AB109490C4874
:102E400003F076F944B1064803F0FDF9054803B0F4
:102E5000BDE8F04003F0F7B903B0F0BD7CD10050FD
:102E60000C0100201C01002000D000508010002028
:102E70009C100020024B0B6001231360704700BFC1
:102E8000B4100020004870475086000010B503F0D1
:102E900044FC034C206003F03DFC6060002010BD4A
:102EA000B4100020F8B50E46144603F033FC21465A
:102EB0000546304603F0EFF93746F8B1B6FBF5F3B7
:102EC00005FB136323B9B4FBF5F005FB104040B1DB
:102ED0002346324645210C4802F061FD6FF0150093
:102EE0000BE0A54209D803F015FC0546384600F072
:102EF00063FD641B2F44F9D12046F8BD23463246BA
:102F000045210248E8E700BFE19300000594000076
:102F100070B50D461946284616461C4603F0BBF907
:102F200040B9094823462A46452102F038FD6FF092
:102F3000150070BD34B122462946304603F0A7F88B
:102F40000020F6E72046F4E705940000F8B50E46A9
:102F50001946304617461C4603F09DF940B92346F2
:102F600032464521124802F01AFD6FF01500F8BDF7
:102F700044EA060515F0030504D0234632464521F0
:102F80000C48F0E78CB12B19032BA6EB050006D8F3
:102F9000094AD2F80034DB07FBD50020E7E77B1BAA
:102FA000196800F027FD043DEDE72046DFE700BF8C
:102FB000059400002794000000900350F0B54B7971
:102FC000012B2BD0032B26D110278B79032B22D159
:102FD000CD7925B1012D1ED143681B79DBB10A796A
:102FE000012A1DD0022A1FD0AAB914460B684668D0
:102FF000B3F5164F36686ED033D8B3F5165F6DD083
:103000001CD8B3F5966F6BD010D8B3F5967F6AD005
:10301000B3F5167F6AD06FF022005BE00027D4E79B
:103020004FF480740E22E1E70024FBE7B3F5166F3E
:103030005FD0B3F5965FEED1384B3EE0B3F5E14F8C
:103040005AD007D8B3F5615F58D0B3F5964FE2D1A7
:10305000334B32E047F6122C6345DCD14FF40003CA
:103060002BE0B3F5613F4BD013D8B3F5963F4AD070
:1030700009D84DF6C02C634547D0B3F5614FCAD18E
:103080004FF46B0319E0B3F5E13FC4D14FF0EB739C
:1030900013E0B3F5612F3BD009D8DFF898C0634542
:1030A00039D0B3F5E12FB6D14FF0E86305E0DFF892
:1030B00088C06345AFD14FF08053C6F82435C3684C
:1030C0002C433A432243043303C9C6F86C2583E8F2
:1030D00003000020F0BD4FF41D03EEE7114BECE7B9
:1030E0004FF49E23E9E74FF4A033E6E74FF41C3397
:1030F000E3E74FF41D23E0E70B4BDEE70B4BDCE788
:103100004FF06C73D9E70A4BD7E74FF46503D4E768
:103110004FF07063D1E74FF08063CEE700B013004B
:1031200000A04E000050270000C0750000F03A00DB
:1031300000903A0190D0030040420F002DE9F04189
:1031400006468846C76805F01CF8B8B9284B1B78B6
:1031500083F001037268156893B14FF02003EFF319
:10316000118483F31188BFF36F8F304603F020F989
:1031700038BB84F31188BFF36F8FEEE70123E9E7D3
:103180006424304603F014F970B9012003F0ADFA5D
:10319000013CF6D10021212001F054FEF0E784F338
:1031A0001188BFF36F8FF5E74FF02003EFF3118421
:1031B00083F31188BFF36F8F304603F0F9F80028CE
:1031C000EDD00123002207F8148FC5F84475C5F827
:1031D0004835C5F82021D5F82011C5F85821D5F873
:1031E0005821AB6084F31188BFF36F8FBDE8F08185
:1031F000AA2E0020074B084900F01F0240090128B1
:1032000014BF1846084602F18003032240F8232029
:10321000704700BF0025845000288450064B0749A2
:1032200000F01F024009012814BF18460846012378
:1032300093408360704700BF00258450002884506D
:10324000F8B505460027012100220820FFF716F8EF
:103250000820FEF7F5FF6B68EE681C681420C4F8C0
:1032600000753560FFF7DAFF1420FFF7C3FF142263
:103270002E4B1320C3F85872C4F80C251622C4F83C
:103280001425C3F85472FFF7C9FF1320FFF7B2FFEC
:103290001323C4F808351523E9682846C4F8103507
:1032A0000431FFF78BFE074678B96B689B79DBB179
:1032B00006F1160000F000FB1D4B984207D0452197
:1032C0001C4802F06CFB6FF004073846F8BDB37D74
:1032D00043F00043C4F8A031C4F88C300123B27D20
:1032E0009340154AC2F804350823C4F8003500237A
:1032F000C4F81031D4F8103106F11503C4F8343590
:103300000123C4F8383523606B689B791BB94FF4EF
:103310008073C4F8043300231436C4F84465C4F839
:1033200048350123A360E360CFE700BF0025845048
:103330000000AD0B549400000070015040EA0103FE
:10334000C3F30D0330B58BB940F21515094C890B49
:10335000C0F38730994201D1002030BDC218D2B2EB
:1033600002F5C07244F822500133F3E76FF0150004
:10337000F3E700BF003000500348452108B502F0D4
:103380000EFB0020FFF72CFA88940000816808B536
:10339000044A1023103902F039FD003818BF01200B
:1033A00008BD00BFAC86000030B50C46816887B010
:1033B000102302AA1039054602F00BFD002811DB8C
:1033C0001022284602A903F0ECF868B10323237009
:1033D000A968012328460DF10702283902F0F9FCFB
:1033E00000280BDA01202AE01022164902A802F078
:1033F0003EFE002814BF02230123E8E79DF80730B2
:10340000284603F00F021B096270237101220DF19F
:10341000070103F0C6F810B96378042B03D9012320
:10342000637000232371AA682846203AA11C03F088
:103430000CF90028D6D12846E11C03F02FF907B07B
:1034400030BD00BFAC8600002DE9F04385B0694671
:10345000022003F027F918B1FF2005B0BDE8F08382
:10346000052002A903F01EF902460028F4D19DF8B8
:1034700000509DF808609DF803709DF80B809DF842
:1034800002901E4C2946207803F0CBF800B3314659
:10349000607803F0C6F8D8B1A378042B01D0BB4202
:1034A00016D1E378042B01D0434511D12379042BA5
:1034B0000CD16379022B16D1114A1248492102F02E
:1034C0006EFA6079831E022BC7D9C5E74B45F0D051
:1034D0000132032A04F10604D4D10B48492102F039
:1034E0005EFA0120B9E7032B05D0084A0849042BEE
:1034F00018BF0A46E1E7074ADFE700BF0095000072
:10350000BC940000D8940000EB940000B594000037
:10351000C6940000C1940000064B1B68072B07D11E
:10352000054B1B68023B032B02D8044AD05C704752
:10353000002070473001FF003401FF0012950000A9
:103540004FF05023D3F85825034B02F00302D34029
:10355000024A1360704700BF0020A10760000020EE
:1035600008B5FFF7D9FF48B1354B1A6832B90D21BC
:1035700019600121A3F5827319601A600022D3003B
:1035800003F57F03D3F80013013107D0D3F80013FC
:103590000132D3F80433202A0B60F0D1FFF7BCFFCF
:1035A000002846D1FFF7B8FF38B1264B264A1A60EB
:1035B0004FF050230122C3F85825244B1B68072BDA
:1035C00002BF0022224B1A60FFF7A6FF50B14FF056
:1035D0005023D3F80024D10742BF0022C3F814219E
:1035E000C3F81821194B1B68072B09D14FF0502342
:1035F000D3F80024D20744BF6FF00102C3F80024BF
:10360000FFF78AFF10B16522124B1A60124AD2F8F6
:103610008C3043F44063C2F88C30104A104B116870
:10362000C3F84415D269C3F84C25BDE80840FFF73C
:1036300087BF2922074B1A6003221A63B2E700BF33
:10364000204A0050309503504400EFBE3001FF0087
:103650004C2503500C47005000ED00E00080FF00B7
:1036600000600050044B1A7922B9012218601A71C7
:103670000248704702487047BC1000200000AD0BA4
:103680000C00AD0B032847D8DFE800F002222D3AEA
:103690004FF05022D2F81834D2F81814C90311D5BB
:1036A00003F00303022B0DD1C2F8183500221B4B87
:1036B0001A601B6802224FF05023C3F80423012232
:1036C0009A6070474FF050230122C3F81825EDE7A8
:1036D0000022134B1A601B6801224FF05023C3F8DD
:1036E00004231A60704700220E4B1A601B684FF4C7
:1036F00000724FF05023C3F8042301221A6270476E
:103700000022094B1A601B684FF480724FF050235F
:10371000C3F8042301229A61704700BF045100508E
:1037200000510050245100502051005070B5044603
:1037300003283ED8DFE800F002223E4B4FF0502332
:103740000222C3F80823002203F582731A601B6863
:10375000284B012242F210754FF050261A60022CBD
:1037600042D0032C43D024BBD6F81834DB0320D539
:10377000012002F0BAFF013DF1D11AE001234FF020
:103780005024002142F210751B4AC4F8083311601E
:1037900012681A4A1360D4F80C34D4F80C2403F0DD
:1037A0000103D20305D523B1012002F09EFF013DA4
:1037B000F1D170BD4FF050234FF40072C3F80823CD
:1037C000002203F592731A601B680D4BC1E74FF09E
:1037D00050234FF48072C3F80823002203F590733E
:1037E0001A601B68074BB4E7D6F85C34BEE7D6F81E
:1037F0005434BBE70C5000500051005004500050AE
:10380000245000501C500050264B10B51A6852B17D
:10381000002018601B6801224FF05023C3F80823D2
:10382000214B1B689847214B1A688AB100221A6005
:103830001B684FF05023D3F81824D3F8181402F063
:103840000302012A4FF0020124D1C3F818159A602F
:10385000174B1A6862B100221A601B684FF480721D
:103860004FF05023C3F808230F4B04201B689847E0
:10387000104B1A68AAB1BDE8104000221A601B68FC
:103880004FF400724FF05023C3F80823064B052075
:103890001B681847C3F80813034B01201B6898479F
:1038A000D6E710BD00510050BC100020045100505C
:1038B00020510050245100500A4A70B51468E64364
:1038C0000ED00023D9B226FA01F5ED0703F101036A
:1038D000F8D501238B40234301700348136070BD6A
:1038E0000248FCE7C41000200000AD0B0200AD0B45
:1038F000012303FA00F010F0FF0F12D04FF0200365
:10390000EFF3118183F31188BFF36F8F064AD36DF4
:1039100023EA0000D06581F31188BFF36F8F03485D
:1039200070470348704700BFC81000200000AD0B6F
:103930000400AD0B2DE9F041FF22002401260546CD
:10394000DFF858E01448DFF85880E3B24FF0200168
:10395000EFF3118C81F31188BFF36F8F22FA03F11B
:10396000C9070AD5DEF85C1006FA03F7394201BF31
:1039700040463943CEF85C102B708CF31188BFF3AE
:103980006F8F404505D006FA03F39A4304F1010412
:10399000DBD1BDE8F08100BF0200AD0BC8100020F4
:1039A0000000AD0B0022034BC3F88425C3F80425A7
:1039B000704700BF0090035008B5C0F30B0383B9F4
:1039C0000222094BC3F88425C3F804254FF0FF32C7
:1039D0000260D3F80024D207FBD5FFF7E3FF0348CA
:1039E00008BD0348FCE700BF009003500000AD0B8A
:1039F0000A00AD0B0122074BC3F88425C3F8042548
:103A0000D3F80024D207FBD50160BFF35F8FFFF727
:103A1000C9BF00BF0090035001680E4A034691429F
:103A200015D1C169A2F11022A2F1EF1291420ED17B
:103A30008268012A0BD8C26812B101698A4206D095
:103A4000586928B19B691B1A584258417047012098
:103A5000704700BF55AA00FF0D4B70B59E68A6B118
:103A60003046FFF7D9FF044678B9F3686BB935697A
:103A70000DB9204670BD2846FFF7CEFF28B9EB6888
:103A8000B34202D12E462D69F2E70124F1E700BFCF
:103A9000281100202DE9F843404D2C68D4B1AC68C2
:103AA000C4B100284DD000294BD001FB00F6B6FB75
:103AB000F0F0884245D1301D43D8B1070DD026F033
:103AC00003070437EC6803E06368BB423BD2A46998
:103AD000002CF9D12046BDE8F8833746F2E7E860CC
:103AE00044E007F1200C04EB0C032039596000215D
:103AF000DFF8B0E0C3E902142169196144F80CE071
:103B0000DFF8A4C0C3F81CC001B1CB60C3E9052035
:103B1000AAB193619A6902B15361236100234FF006
:103B20000109C4E905332B69C4E90179DB072DD507
:103B3000FFF792FF50B31A4B48461B6825E0EB6035
:103B4000E8E70024C6E7A3681BB1154B01201B68FA
:103B50009847D4E90520616804F12008C91B23298E
:103B6000BFD80123A360002AB9D09061A36903B133
:103B70005A610023C4E905332B69DA0706D5FFF73C
:103B80006BFF18B10120064B1B6898473246002195
:103B90004046444602F0A6FA9CE700BF28110020E8
:103BA0006800002055AA00FF669911EE2DE9F0414A
:103BB000054600287CD03F4E3368002B78D0B26891
:103BC000002A75D0834203D872681344984203D305
:103BD000394B01201B689847A5F120042046FFF7C8
:103BE0001BFF18B1344B01201B68984755F8183C4F
:103BF000012B03D0304B01201B689847002355F858
:103C0000147C45F8183CAFB1BA6892B955F81C3C21
:103C100003F120027B6813447B6055F8103C3B6144
:103C200003B1DF6020462022002102F05BFA234628
:103C30003C461F462069002832D08368002B2FD1D4
:103C4000636842682033134463600369D4E9052143
:103C50002361DAB901BB426981696261A161EAB19C
:103C60009461A26902B1546103B1DC602022002199
:103C700002F038FA33699B071AD5FFF7EDFEB8B1A9
:103C8000BDE8F0410C4B01201B6818479161A16908
:103C90000029E0D04A61DEE7F160F8E7F460E0E790
:103CA000002FE7D1F368A36103B15C61F460E1E741
:103CB000BDE8F081281100206800002038B50D46CD
:103CC000142200210446124802F00CFA114912484D
:103CD00000F032F8232D1AD914F003031FBF043D5E
:103CE000ED18C3F10403E4182A460021204602F02F
:103CF000F9F9074B094AC3E900459C602260A2F12B
:103D00001022203DA2F1EF126560E261DC6038BD57
:103D100028110020AD3B0000953A000055AA00FF95
:103D2000014B1B68184700BF64000020014B1B6853
:103D3000184700BF6C000020024B1860024B0020A7
:103D400019607047640000206C0000200A4619B119
:103D5000024B00211B681847704700BF700000200D
:103D6000F8B500F108064768044630460D4603F0F2
:103D700020F9874216D16368B3F5807F12D80021FD
:103D8000304603F08DFA00280CDD0021304603F0A8
:103D9000E3F838B145B9002104F1140003F080FACA
:103DA00000281EDC1B481EE004F12C0600213046D2
:103DB00003F076FA0028F5DD0021304603F0CCF858
:103DC0000028EFD004F138060021304603F068FAED
:103DD0000028E7DD0021304603F0BEF80028DAD1E4
:103DE000E0E70DB90020F8BD002104F1440003F024
:103DF00057FA0028D6DD002104F1500003F050FAF4
:103E00000028CFDD002104F15C0003F049FA00280E
:103E1000E8DCC7E780BFFFFF70B500210446FFF76D
:103E20009FFF0546B8B904F10806304603F0A5F82F
:103E30007F2810D914342946204603F08DF850B15C
:103E4000204603F09AF8012805D93146204603F0B0
:103E5000E4F9002800DB014D284670BD00BEFFFFDD
:103E6000F0B50C4687B0002105461646FFF778FFEF
:103E700080BB03A802F0EAFF21466A6803A803F0AA
:103E80009EF80446D0B905F10804214603A803F0C2
:103E9000C4F900281BDA05F1680303A9009308465A
:103EA000234605F114026F6803F04CFD044628B95F
:103EB0003A46314603A803F0BAF8044603A802F0D4
:103EC000CBFF0CB1A4F58544204607B0F0BD6FF0E0
:103ED0000304F3E7004CF7E780BFFFFF0023C0E9CE
:103EE0000033C1B9194A1A4BDFF88CC0C0E902236C
:103EF000184B194AC0E904C3184BC0E90623184BF4
:103F0000036203F17453A3F52303A3F692434362C0
:103F1000816600207047134B134ADFF860C0C0E988
:103F2000022303F1794303F5740303F5016303618D
:103F30000E4BC0E905C303F1D14303F5C01303F5EC
:103F40001E63C3610A4B03620A4BE0E767E6096A36
:103F500085AE67BB3AF54FA57F520E518C68059B25
:103F6000ABD9831F07D57C36D89E05C1310BC0FF66
:103F7000A78FF964A44FFABE72F36E3C39590EF75D
:103F80002DE9F04F00F10803D1B0059308AB009381
:103F900000F128030693009A059B53F8040B42F89E
:103FA000040B06989842F8D10DF140094A4601F1F8
:103FB00040004B780C781B0443EA0463CC7804314E
:103FC000234311F8024C884243EA042342F8043B9D
:103FD000EFD19D48CA468646009B0099D3F81CC085
:103FE000D3F81080D3E9056BD3E90072C9689B68E8
:103FF0000190DEF80000DAF800404FEAF82585EA83
:10400000B815204485EA786505448BEA060000EA85
:10401000080080EA0B00054447EA02044FEA7730C3
:10402000AC4480EAB70007EA02051C4080EAB750BA
:104030002C430444DEF80450DAF8040061440544DB
:10404000AB4488EA06050D40A44485EA06040BEB60
:1040500004054FEAF12B8BEAB11B8BEA716BAB4481
:104060004CEA07004FEA7C350CEA070485EABC05F8
:104070001040204385EABC55DEF808400544DAF8D4
:1040800008005B440444264481EA08041C405D4463
:1040900084EA080B06EB0B044FEAF32686EAB31614
:1040A00086EA736626444CEA05004FEA75340CEA4A
:1040B000050B84EAB504384040EA0B0084EAB554A5
:1040C000044434443244DEF80C00DAF80C6081EA2F
:1040D000030B30440BEA020B4FEAF2268BEA010B8A
:1040E000404486EAB216584486EA7266064407EBF4
:1040F00006084FEA743045EA040705EA040B80EA33
:10410000B40007EA0C0747EA0B0780EAB4503844CA
:104110003044DAF81070DEF8106083EA020B3E4497
:1041200031440BEA080B4FEAF8268BEA030B86EAC8
:10413000B816594486EA78660E4444EA00074FEA06
:10414000703104EA000B81EAB0012F4047EA0B0707
:1041500081EAB05139443144B444DAF81470DEF8DD
:10416000146082EA080B3E4433440BEA0C0B4FEA1E
:10417000FC268BEA020B86EABC165B4486EA7C6668
:104180001E4405EB060B4FEA713340EA010500EAD5
:104190000107254083EAB1033D4383EAB1532B4431
:1041A0003344DEF81850DAF818600EF1200E35446A
:1041B000154488EA0C0202EA0B0282EA0807EA19AF
:1041C0004FEAFB2585EABB1585EA7B651544661930
:1041D0004FEA733241EA0304044001EA030782EA2A
:1041E000B3023C4382EAB35222442A445EF8044CB0
:1041F000DAF81C500AF1200A6719B8448CEA0B0758
:10420000374087EA0C0747444FEAF62888EAB61891
:1042100088EA7668474400EB070843EA02044FEA5D
:10422000723080EAB2000C4003EA020580EAB25024
:104230002C4304440548274470457FF4DAAE09F165
:10424000C000079004E000BFBC860000FC860000B0
:10425000D9F83800D9F804504FEAF04E8EEA704E83
:10426000D9F800408EEA902ED9F824004FEAB54ADA
:1042700020448AEAF51A8AEAD50A86444FEAF824E5
:104280000EEB0A0084EAB814049084EA78608BEAA2
:10429000060404EA080484EA0B040444019888EA4A
:1042A000060E006C09F120092044049C204484443B
:1042B0006144029147EA02004FEA7731C9F8204091
:1042C00081EAB70107EA0204184081EAB7512043A6
:1042D0000844D9F81C1084444FEAF14080EA714048
:1042E00080EA9120D9F8081059F8184C2944014463
:1042F00002984FEAB4450EEA000E019885EAF415DB
:10430000406C85EAD4052944584408448EEA060ED8
:1043100086440298C9F824104FEAF02585EAB015C2
:1043200085EA706505EB0E0003EB000B4FEA7C3568
:1043300047EA0C0307EA0C0E85EABC05134043EA82
:104340000E0385EABC551D44049B05444FEAF34027
:1043500080EA734080EA9320D9F80C3059F814ECC5
:104360002344034402984FEABE4488EA000A0198B5
:1043700084EAFE14806C84EADE0423440AEA0B0A11
:1043800030444FEAFB2418448AEA080A84EABB1442
:1043900084EA7B64824404EB0A0002444CEA05048C
:1043A0004FEA7536039286EAB5060CEA05023C40F0
:1043B00086EAB5561443344404444FEAF14080EA97
:1043C000714080EA9121D9F8100059F8102C8644E8
:1043D00071444FEAB24E8EEAF21E8EEAD20E8E443D
:1043E0000299039881EA0B0101400298C9F828302C
:1043F00041400198C66C0398464476443144039E7C
:104400004FEAF02080EAB61080EA7660461845EA66
:10441000040005EA04014FEA743800EA0C0088EA57
:10442000B40808434FEAF34188EAB45881EA73417B
:10443000404481EA9323D9F81410304407EB060A6C
:1044400059F80C6C0A4413444FEAB64282EAF61259
:1044500082EAD6021A44039B02998BEA0307019B66
:1044600007EA0A071B6D87EA0B0713440B444FEA60
:10447000FA2181EABA111F4481EA7A61CB1944EA30
:1044800000074FEA703104EA000881EAB0012F40CA
:1044900047EA080781EAB051394419449C4459F865
:1044A000088CD9F818304FEAFE4787EA7E47C9F8EA
:1044B0002CE087EA9E2E9F194FEAB84383EAF8134F
:1044C00083EAD80377441F44039BC9F8302083EA6A
:1044D0000A0E0EEA0C0E8EEA030E019BC9F8347028
:1044E0005B6D3B445B449E444FEAFC2383EABC1370
:1044F00083EA7C6303EB0E0605EB060B4FEA713390
:1045000040EA010500EA010E254083EAB10345EACD
:104510000E0583EAB1532B443344D9F81C504FEABB
:10452000F24659F804EC86EA724686EA922205EBD6
:10453000080616444FEABE4282EAFE1282EADE0212
:104540001644019A8AEA0C08956D039A354415447D
:1045500008EA0B084FEAFB2288EA0A0882EABB1243
:10456000454482EA7B621544C9F838604FEA7332E9
:10457000661941EA0304044001EA030882EAB3022F
:1045800044EA080482EAB35222444FEAF74484EA38
:1045900077442A4484EA9727D9F80050049CA6441B
:1045A0004FEAB54484EAF51484EAD505019C7744C2
:1045B000E46D3D448CEA0B0E2C440EEA060E4FEAE5
:1045C000F6278EEA0C0E544487EAB617744487EA3D
:1045D0007667274400EB070843EA02044FEA72308B
:1045E000C9F83C5080EAB2000C4003EA020580EAB8
:1045F000B2502C430444019827442030019007987E
:1046000048457FF425AECDE90D6BCDE90872CDE9C3
:104610000A31CDF83CC0CDF83080059B00991B686D
:1046200051F8042B1344059A009142F8043B069B71
:1046300005929342F1D1002051B0BDE8F08F00BF48
:10464000F8B5104B104F53F82050013053F820604C
:10465000AE4200D8F8BDD5E900342046984770B185
:104660006CB10123E41B094A2411610952F82100AD
:1046700004F01F0403FA04F4044342F8214008350F
:10468000E6E700BFBC870000DC0000204C010020F2
:10469000084BC01A0011084B420953F8222001238D
:1046A00000F01F0003FA00F010420CBF1846002073
:1046B000704700BFDC0000204C010020114970B59C
:1046C00005460E46104C8C4204D10F4CB4420AD120
:1046D000002414E02046FFF7DBFF10B12368AB4253
:1046E0000DD01034EFE72046FFF7D2FF08B91034A1
:1046F000ECE72846216801F0AEFC0028F7D12046FF
:1047000070BD00BF4C010020DC000020F7B505465D
:104710000E464FF02003EFF3118783F31188BFF3A8
:104720006F8F00F0A1FB0022042D98BF184B0446A8
:1047300094BF53F82530174B009245212A4616485E
:1047400001F02DF93EB1F369C3F308031BB1452114
:10475000124801F024F934B1204603F01CFD034651
:1047600008B1027802B90E4B224645210D4801F0EE
:1047700016F931462846FEF7FFFD87F31188BFF38F
:104780006F8F204603B0BDE8F040FEF747B800BF8A
:10479000D4870000169500002C9500005995000064
:1047A000249500007F9500000248034A0021121A58
:1047B00001F098BCA0010020AC2E0020012208B519
:1047C000084B02201A70FFF73BFF00F067FB032045
:1047D000FFF736FFFBF73CFE034A137B23F0010390
:1047E000137308BDAA2E0020A001002008B5144BA9
:1047F00003F5006282F3088883F30A880025E0232A
:10480000104C84F82230E57725766576A576636AC4
:1048100043F4E0236362FDF7D5FFFDF769FD4FF038
:10482000FF332846A362E362FFF70AFF0120FFF788
:1048300007FF2B462A4629460348FDF735FD00BFF2
:10484000B056002000ED00E0BD47000070B50E4BF3
:104850000E4CA34201D3002070BDD3E9030141EA0D
:10486000000212F003020BD19D685A61AA4201D1E5
:104870001C33EEE75E6901320E6059610144F5E7D1
:104880006FF01500E8E700BF500100205001002044
:10489000D3B50C4616461F464FF02003EFF31181A7
:1048A00083F31188BFF36F8F43695BB123601B688B
:1048B0004361836901338361002081F31188BFF371
:1048C0006F8F11E056EA070203D16FF00B002360EF
:1048D000F3E70246CDE90067044800F05FFA18B933
:1048E000034B9B685B69236002B0D0BDAB2E0020F8
:1048F0003C110020F8B504460D464FF02003EFF3BD
:10490000118683F31188BFF36F8F47696FB903F086
:1049100013FC50B12A68C767426103F0B2FB31460D
:10492000BDE8F840074800F0CBB82B6862691A6010
:104930002B686361A369013BA36186F31188BFF310
:104940006F8FF8BDAB2E00202DE9F34104461646CB
:104950001F464FF02003EFF3118883F31188BFF354
:104960006F8FC368324A6BB180689168884219D0F2
:1049700056EA070318D188F31188BFF36F8F6FF0E1
:104980000F000CE0916891F90E100133E360936819
:104990002161A36088F31188BFF36F8F002002B0FC
:1049A000BDE8F0812169F0E790F90E3091F90E1021
:1049B0009942A8BF194621EAE1718B422CDD00F033
:1049C000FDF9054622464146CDE90067194800F049
:1049D000E5F90028E3D04FF02003EFF3118683F3CD
:1049E0001188BFF36F8F23682169A34207D033B1C9
:1049F00093F90E309942A8BF194621EAE171A068E7
:104A000090F90E30994209D16DB13146094800F054
:104A100057F86FF00A00C2E70025D3E700F0CEF99F
:104A20000028F2D1F0E786F31188BFF36F8FF0E72B
:104A30003C110020AB2E002038B583680446002BC3
:104A400033D01D4A9268934232D1C368012B05D0FE
:104A5000013BC36003F0FEFA002038BD4FF0200395
:104A6000EFF3118583F31188BFF36F8F01698068BD
:104A700090F90E30994201D000F0A0F9204603F0E1
:104A80005BFBA06058B190F90E2022610022C26742
:104A900003F0F7FA2946094800F012F8DAE7E06077
:104AA00085F31188BFF36F8FD4E76FF01500D4E75B
:104AB0004FF0FF30D1E700BF3C110020AB2E0020AB
:104AC00049B9EFF3058030B9054B5A6A9B689A42A1
:104AD00001D0FDF75FBB81F31188BFF36F8F704783
:104AE0003C110020094B03F12802824205D19B684A
:104AF0008B4202D14B7BDB0606D1D1E90032136039
:104B00005A600023C1E90033704700BF3C11002008
:104B10000F4A0146136910B50BB1D0680DE002F1E0
:104B2000280003F0A4FA9468637B13F0200F1CBFE5
:104B300043F0080363730028EFD039B99368597BB9
:104B4000C90603D18169002908BF1846506210BD0B
:104B50003C11002070B490F90D20437B002A2CDB1F
:104B6000DB062AD1836943BB154A114651F8284F09
:104B70008C4218BF2346002B38BF0023D46AB3B140
:104B800090F90E6093F90E50AE4203DBA3420ED0B3
:104B90001B68F4E75A68C0E9003210605860437B34
:104BA00063F07F03437370BC0020FFF7B1BFC0E91F
:104BB0000014D36A1860D062F1E770BC704700BF80
:104BC0003C11002070B50446183003F0E6FA4FF0AF
:104BD0002003EFF3118683F31188BFF36F8F94F9ED
:104BE0000D30002B07DA21460E48FFF77BFF637B71
:104BF00003F07F0363730C4D637BA86843F01003DD
:104C00006373031B58425841FFF782FF86F31188F4
:104C1000BFF36F8FAB68A34203D1BDE8704003F0D0
:104C20000FBA70BD641100203C1100202DE9F04145
:104C300004464FF02003EFF3118283F31188BFF392
:104C40006F8F437B13F0280F05D082F31188BFF3D9
:104C50006F8FBDE8F08143F02003437382F3118826
:104C6000BFF36F8F183003F098FA4FF02003EFF383
:104C7000118683F31188BFF36F8F637BD80616D13B
:104C8000A269A2B9190607D521462248FFF72AFFD3
:104C9000637B03F07F0363731F4B9868021B5042D2
:104CA0005041FFF735FF002704F130081DE09B0756
:104CB000F9D52146A068FFF715FF637B23F00203B7
:104CC00063730023A360EEE705F1180003F065FAB3
:104CD000A8682946FFF706FF6B7B284623F00203EE
:104CE0006B73AF60EF67FFF735FF256B454501D06C
:104CF000002DE9D1637B43F008036373236E86F3D1
:104D00001188BFF36F8F002BA3D02046BDE8F04180
:104D1000184700BF641100203C11002008B590F92D
:104D20000D300146002B06DA0748FFF7DBFE4B7B10
:104D300003F07F034B73054B9868431A5842584160
:104D4000BDE80840FFF7E4BE641100203C110020DC
:104D50002DE9F041064614461D464FF02003EFF3BF
:104D6000118783F31188BFF36F8F03F0BAF987F3CC
:104D70001188BFF36F8F6B1C08BFB4F1FF3F08D0E1
:104D800022462B4606F118000349BDE8F04100F029
:104D9000F3B8BDE8F08100BFA380000010B50C4659
:104DA00005481146DDE902238068FFF7D1FF204660
:104DB000BDE81040FDF7EEB93C1100202DE9F041AF
:104DC00004464FF02003EFF3118883F31188BFF3FB
:104DD0006F8F437B4EB2DB062ED1856965BB184FC2
:104DE000214607F12800FFF77DFEBB6AFA6A83427D
:104DF00018BF1D46002D38BF0025A673B5B195F923
:104E00000E10B14203DCAA4210D02D68F6E76A68A2
:104E1000C4E9005214606C600120FFF779FE0120A4
:104E200088F31188BFF36F8FBDE8F081C4E90002F9
:104E3000FB6A1C60FC62EFE70020A673F0E700BF8E
:104E40003C110020013108BFB0F1FF3F08B506D189
:104E5000044B9868FFF7B6FE4FF0FF3008BD002006
:104E6000FCE700BF3C110020014B9868704700BF71
:104E70003C11002008B54FF02003EFF3118483F3B9
:104E80001188BFF36F8F044B98681861FFF79AFE83
:104E90002046FDF77FF900BF3C110020024A03497C
:104EA000034800F07CBD00BF7E950000E99500003E
:104EB000F895000008B50648064A0749121A01F09D
:104EC000E6F8BDE80840054A0549064801F0DFB8A4
:104ED00000000020A001002020960000000000003B
:104EE0002096000000000020034B1B680BB9FDF763
:104EF0005BB80020704700BF6C11002030B503681C
:104F000068B10A4A5268904209D043B1D3E90421FA
:104F1000D0E90445121945EB0101C3E904214268B7
:104F200013605A600023C0E9003330BD74000020D4
:104F300038B5104B1C689C4208BF0024FFF7D4FF13
:104F400005468CB1D4E90401401B61EBE5710128F1
:104F500071F100030BDB6FF000420023824273EB20
:104F6000010400DA104638BD6FF00040FBE7002076
:104F7000F9E700BF740000202DE9F74F01911946B1
:104F80004B1C08BFB2F1FF3F82466BD06FF00103AC
:104F90004FF0FF3B541C41F10005B3EB04086BEBF1
:104FA0000509B8F1000F79F100030FDBFFF79CFF53
:104FB0006FF00103324AD2E9001C5B1A6BEB0C0262
:104FC0001E1B62EB0507341A67EBE075019BCAF8FC
:104FD00008304FF02003EFF3118683F31188BFF3FD
:104FE0006F8FFFF781FF012C75F10003BCBF012417
:104FF0000025244B24181A6845EBE0759A42CAE94B
:10500000044501D05F6852B95A68CAF80030CAF83E
:1050100004205A68C2F800A0C3F804A014E0D2E942
:105020000489DAE90445444575EB09011DDAB8EB5A
:10503000040069EB0501C2E904015168CAE90021D5
:10504000C1F800A0C2F804A01A689A4206D092459E
:1050500004D1FFF76DFF0021FCF774FF86F3118880
:10506000BFF36F8F03B0BDE8F08FB4EB080065EBC2
:105070000901BA42CAE90401C6D01268C3E700BFF9
:1050800020020020740000202DE9F74F4FF020038C
:10509000EFF3118483F31188BFF36F8FDFF8ACA0B7
:1050A000294D5146DFF8A8B02860D5F800C0DBF8DC
:1050B00000006246DAE90089D3175845CDE900239C
:1050C0000DD060B1D0E90467B445BB411DDA009B47
:1050D000B6EB030C019B67EB0306C0E904C6002690
:1050E000009B2E6013EB0802019B43EB0903C1E90F
:1050F0000023FFF71DFF3146FCF724FF84F31188DE
:10510000BFF36F8F03B0BDE8F08F0022002318EBD0
:10511000060849EBE679C0E90423ACEB0606CAE9C8
:1051200000892E60FFF7EAFE84F31188BFF36F8FCA
:10513000836898474FF02003EFF3118483F31188BD
:10514000BFF36F8F0149B0E76C11002020020020EF
:105150007400002038B5064C064DAC4201D3002047
:1051600038BD2046D4E9011203F02DF81434F4E7D9
:10517000500100205001002010B50A4C23681BB1DB
:1051800001230020236010BD00F0B2F80028F7D002
:105190000138072803D8044B53F8200010BD0348FA
:1051A00010BD00BF70110020E8870000FE8FFFFFD8
:1051B000BFF34F8F0549064BCA6802F4E062134300
:1051C000CB60BFF34F8F00BFFDE700BF00ED00E0F5
:1051D0000400FA054FF0FE33002130B4084A094CB0
:1051E000094D23602B601360E360EB60D360A36123
:1051F000064A074CAB616368C2F8001530BC18471B
:105200000854845000548450045484500040845006
:105210007C000020024BD0E90012C3E90012704765
:105220007C00002048B143682BB1BFF35F8F00239F
:10523000036018467047024870476FF4E0407047BB
:10524000EA8FFFFF10B5044628B1636813B100234D
:105250002360636010BD024B02485B689847F4E727
:105260007C0000200888000010B5044630B1002200
:105270006368226043F00103636010BD0148FFF7DB
:10528000A9FFF4E73088000080B1436863B10122D0
:10529000D0E8EF3FC0E8E12F0029F9D1012BF7D08A
:1052A000BFF35F8F00207047024870476FF4E04003
:1052B000704700BFEA8FFFFF70B40B4B0668C268EF
:1052C000D0E90154C3E90242C3E90065D1E9030210
:1052D0000E68064BD1E90154C3E90065C3E90240F9
:1052E0001A6170BC704700BF8C0000209C00002039
:1052F00008B500F00FF828B900F00EF830B9044AEC
:10530000106008BD00F036F8032008BD042008BD79
:105310000C5A84500020704710B5114800F048F82E
:1053200000B110BD0F4800F043F80028F9D10E4C31
:10533000204600F03DF80028F3D10C4B0C481C60CF
:1053400000F036F801460028EBD100F02DF80446B5
:1053500008B1204610BD00F03FF82046FAE700BF34
:10536000D4000020C8000020D0000020D800002079
:10537000CC00002008B5084800F024F8074800F0E9
:1053800021F8074800F01EF8064800F01BF8BDE8B9
:10539000084000F00BB800BFD4000020C800002077
:1053A000D0000020CC00002000207047704700BFD4
:1053B00008B5034B02681B6810689847002008BDB9
:1053C0008C00002008B5034B02685B6810689847A2
:1053D000002008BD8C00002070B5094C094D2069E3
:1053E000AB68984718B1084B08485B68984700219C
:1053F000074AEB6811602069BDE87040184700BF9C
:105400009C0000208C0000207C00002054880000BC
:105410008411002029B1012914BF6FF01500052067
:105420007047022070472DE9F7430E46174699460C
:10543000044628B94FF0FF38404603B0BDE8F0837A
:105440000029F7D0002AF5D0CB680D8938461D44D5
:10545000042329460DEB030200F0BBFC8046002824
:10546000E8D146F60812BDF804107389914223D1A1
:10547000BDF806109942DDD1042338460DEB030236
:10548000294400F0A6FC0028D4D146F60713BDF845
:1054900004209A42CED19DF82830BDF80620A37290
:1054A0007389C4E900672B44E36004351344A4F80E
:1054B000089063612561BFE7002BE6D0BAE72DE9CC
:1054C000F7430F4690461E46044620B94FF0FF3082
:1054D00003B0BDE8F0830368002BF7D04368002BCE
:1054E000F4D04FF6FF79D4E904239A4216D2236808
:1054F0005B8923B1E368934204BF0433236104232F
:10550000216960680DEB030200F063FC0028DDD127
:10551000A37A256923B1E368AB4201D80120D7E71C
:105520002189BDF80630494503F1040203D0BDF8D6
:1055300004C08C450BD116B1BDF804103180043580
:105540003D60A8F80030236913442361C0E7154487
:105550002561C8E72DE9F74306460F4690461D46EC
:1055600000F0A3FC082804461ED8304600F0A6FC34
:10557000AC4238BF2C4681462A464146E4B26846D2
:1055800000F085FD4946621B0DEB050000F0AAFD09
:1055900023466A463946304600F038FC003818BFCA
:1055A000012003B0BDE8F0834FF0FF30F9E700F0D1
:1055B0005EBD4FF4C0735843303070470B78022BF8
:1055C00006D0052B0CBF4FF4C0704FF0FF30704772
:1055D0004FF4C070704710B5044600F066FC4FF4FD
:1055E000C072A368303B02FB103010BD012307B529
:1055F000816801AA20398DF80430FFF7ABFF03B0B2
:105600005DF804FB13B50446019101F007F804238B
:10561000A0F108010DEB03022046FFF79BFF02B04B
:1056200010BDF7B5054600200C461746FFF7F2FE01
:105630006946C0B2FCF7E2F930B10125009800F0EC
:10564000C7FB284603B0F0BD2C2101FB045421897F
:10565000E3680098CE18042331460DEB030200F0F6
:10566000B8FB05460028E8D146F60813BDF804202B
:1056700064899A421AD1BDF806309C4201D00325B4
:10568000DCE7042300980DEB0302A11900F0A1FB55
:105690000028D2D146F60713BDF804209A42EED175
:1056A000BDF80610214431443960C7E7002CF1D021
:1056B000E5E7F8B513460F461646002102460546B3
:1056C000FBF7E0FB044650B933460121284605F1BB
:1056D0002C02FBF7D7FB10B1002F18BF0446204661
:1056E000F8BD37B580250446426A01A9022001951C
:1056F000FCF798F948B9019B0520226DA36201A926
:105700000195FCF78FF9054608B1012505E0019BDD
:10571000206A636500F0C9FBE065284603B030BD30
:105720000123036003F1012343600023C0E9023336
:1057300070474379012B07D10368012B04D100790D
:10574000431E584258417047002070477FB50646B7
:105750000D46022001A9FCF751F938BB0198FFF76B
:105760003AFFF16D0446284600F0E3F8044401983E
:1057700000F09BFB0646019800F0A0FB08220146C2
:105780000DEB020000F0AEFC2B7921468DF80830BD
:105790000198334602AA00F039FB041E18BF012409
:1057A000019800F015FB204604B070BD0124F7E716
:1057B00000F055BB2DE9F8430E4600210746084688
:1057C000FFF728FE044601210020FFF723FE33786F
:1057D0009C4220D0984220D101242C2303FB047446
:1057E000F86DA56AFFF7E5FE00278046013D636A74
:1057F000304603EBC50253F83510D2F804901B680D
:105800004A46C91A4F44FFF7D3FFB84505F1FF35A3
:10581000EDD8BDE8F8830024DFE70120F9E737B5CC
:1058200015460C460520694600F03CFFE979012940
:1058300003D00022204600F049FF9DF80330012BE1
:1058400002D1204600F01EFFA9682046FFF7DAFECD
:105850002046FDF79BFD002003B030BD73B50D461B
:105860000646FBF7F7FB0446E86030B102282ED16C
:1058700001A9FCF7C3F818B10124204602B070BD9D
:105880002A4631460198FBF74BFB0446D8B90198EC
:1058900000F0C4FE012301460DF10302019800F05F
:1058A00098FA04460028E7D1012201980DF103017E
:1058B00000F0C5FE10B101238DF803309DF80330D0
:1058C00003F00F03EB71019800F082FAD5E707248B
:1058D000D3E713B5022001A9FCF790F848B9019865
:1058E000FFF784FE0446019800F072FA204602B0E9
:1058F00010BD0124FAE71FB5022001A9FCF77EF8CC
:10590000A8B9019802A9FDF74FFD044668B99DF8B2
:105910000B30032B03D1019800F0B4FE044601982C
:1059200000F056FA204604B010BD0124F7E7012428
:10593000F8E730B543790468012B0ABF012202223F
:10594000002501FB02F204F1FF3402FB04F20379AB
:1059500018BFCD01013B01FB0321481930BD0346AF
:1059600058B1426802F00302012A03D0032A04D18D
:10597000026812B10020986070476FF01500704700
:105980004268034602F00302032A4FF000028160DE
:1059900014BF104600685A607047002070470FB46B
:1059A00007B504A951F8040B0191FBF73BFD03B0C7
:1059B0005DF804EB04B07047038B13F0070305D1C7
:1059C0000368002B0CBF002003207047022B05D179
:1059D000438B002B14BF002004207047012B05D1FE
:1059E0000368002B0CBF0020052070470020704783
:1059F0002DE9F0410D4607461946281D90461E46E2
:105A0000FFF7BEFF044638B13346424629463846C2
:105A1000A446BDE8F0416047BDE8F08110B44FF006
:105A20002004EFF3118284F31188BFF36F8F41617B
:105A300010BC0121FBF704BD10B50C4640B139B1D3
:105A4000081DFFF78CFF28B9A36833F0030301D0CA
:105A50006FF0150010BD38B50C46054658B151B170
:105A60000B6843B14B6833B11C22002100F03AFBB4
:105A700000202C6138BD6FF01500FBE770B50446BF
:105A80000E46FFF7D9FF051E31DB4FF02003EFF381
:105A9000118183F31188BFF36F8F4FF6FF75638B0E
:105AA000208BAB4200F007022ED0022A0ED1013328
:105AB00063831546012381F31188BFF36F8FB3B160
:105AC000002331462046FFF793FF10E0830701D003
:105AD000062A0ED100233360636893B9C4E90066D7
